{
  "_format": "hh-sol-artifact-1",
  "contractName": "MetabetMaskPool",
  "sourceName": "contracts/MetabetMaskPool.sol",
  "abi": [
    {
      "anonymous": false,
      "inputs": [
        {
          "indexed": false,
          "internalType": "address",
          "name": "previousAdmin",
          "type": "address"
        },
        {
          "indexed": false,
          "internalType": "address",
          "name": "newAdmin",
          "type": "address"
        }
      ],
      "name": "AdminChanged",
      "type": "event"
    },
    {
      "anonymous": false,
      "inputs": [
        {
          "indexed": true,
          "internalType": "address",
          "name": "beacon",
          "type": "address"
        }
      ],
      "name": "BeaconUpgraded",
      "type": "event"
    },
    {
      "anonymous": false,
      "inputs": [
        {
          "indexed": true,
          "internalType": "bytes32",
          "name": "_eventId",
          "type": "bytes32"
        },
        {
          "indexed": true,
          "internalType": "address",
          "name": "_player",
          "type": "address"
        },
        {
          "indexed": false,
          "internalType": "int8",
          "name": "result",
          "type": "int8"
        },
        {
          "indexed": false,
          "internalType": "uint256",
          "name": "_amount",
          "type": "uint256"
        }
      ],
      "name": "BetPlaced",
      "type": "event"
    },
    {
      "anonymous": false,
      "inputs": [
        {
          "indexed": true,
          "internalType": "address",
          "name": "user",
          "type": "address"
        },
        {
          "indexed": true,
          "internalType": "bytes32",
          "name": "eventId",
          "type": "bytes32"
        },
        {
          "indexed": false,
          "internalType": "uint256",
          "name": "reward",
          "type": "uint256"
        }
      ],
      "name": "Claim",
      "type": "event"
    },
    {
      "anonymous": false,
      "inputs": [
        {
          "indexed": false,
          "internalType": "uint8",
          "name": "version",
          "type": "uint8"
        }
      ],
      "name": "Initialized",
      "type": "event"
    },
    {
      "anonymous": false,
      "inputs": [
        {
          "indexed": false,
          "internalType": "address",
          "name": "_address",
          "type": "address"
        }
      ],
      "name": "OracleAddressSet",
      "type": "event"
    },
    {
      "anonymous": false,
      "inputs": [
        {
          "indexed": true,
          "internalType": "address",
          "name": "previousOwner",
          "type": "address"
        },
        {
          "indexed": true,
          "internalType": "address",
          "name": "newOwner",
          "type": "address"
        }
      ],
      "name": "OwnershipTransferred",
      "type": "event"
    },
    {
      "anonymous": false,
      "inputs": [
        {
          "indexed": false,
          "internalType": "string",
          "name": "tokenName",
          "type": "string"
        },
        {
          "indexed": true,
          "internalType": "address",
          "name": "token",
          "type": "address"
        }
      ],
      "name": "TokenAdded",
      "type": "event"
    },
    {
      "anonymous": false,
      "inputs": [
        {
          "indexed": false,
          "internalType": "uint256",
          "name": "newFee",
          "type": "uint256"
        }
      ],
      "name": "TokenFeeUpdated",
      "type": "event"
    },
    {
      "anonymous": false,
      "inputs": [
        {
          "indexed": true,
          "internalType": "address",
          "name": "token",
          "type": "address"
        }
      ],
      "name": "TokenRemoved",
      "type": "event"
    },
    {
      "anonymous": false,
      "inputs": [
        {
          "indexed": true,
          "internalType": "address",
          "name": "implementation",
          "type": "address"
        }
      ],
      "name": "Upgraded",
      "type": "event"
    },
    {
      "inputs": [
        {
          "internalType": "string",
          "name": "_tokenName",
          "type": "string"
        },
        {
          "internalType": "address",
          "name": "_token",
          "type": "address"
        }
      ],
      "name": "addToken",
      "outputs": [],
      "stateMutability": "nonpayable",
      "type": "function"
    },
    {
      "inputs": [
        {
          "internalType": "bytes32",
          "name": "_eventId",
          "type": "bytes32"
        },
        {
          "internalType": "string",
          "name": "_token",
          "type": "string"
        },
        {
          "internalType": "uint256",
          "name": "_amount",
          "type": "uint256"
        },
        {
          "internalType": "int8",
          "name": "_predictResult",
          "type": "int8"
        }
      ],
      "name": "bet",
      "outputs": [],
      "stateMutability": "nonpayable",
      "type": "function"
    },
    {
      "inputs": [
        {
          "internalType": "bytes32",
          "name": "_eventId",
          "type": "bytes32"
        },
        {
          "internalType": "uint256",
          "name": "_amount",
          "type": "uint256"
        },
        {
          "internalType": "int8",
          "name": "_predictResult",
          "type": "int8"
        }
      ],
      "name": "betBNB",
      "outputs": [],
      "stateMutability": "payable",
      "type": "function"
    },
    {
      "inputs": [
        {
          "internalType": "bytes32[]",
          "name": "_eventIds",
          "type": "bytes32[]"
        },
        {
          "internalType": "address",
          "name": "_token",
          "type": "address"
        }
      ],
      "name": "claim",
      "outputs": [],
      "stateMutability": "nonpayable",
      "type": "function"
    },
    {
      "inputs": [
        {
          "internalType": "bytes32",
          "name": "",
          "type": "bytes32"
        },
        {
          "internalType": "address",
          "name": "",
          "type": "address"
        }
      ],
      "name": "eventToPoolSize",
      "outputs": [
        {
          "internalType": "uint256",
          "name": "",
          "type": "uint256"
        }
      ],
      "stateMutability": "view",
      "type": "function"
    },
    {
      "inputs": [
        {
          "internalType": "bytes32",
          "name": "",
          "type": "bytes32"
        },
        {
          "internalType": "address",
          "name": "",
          "type": "address"
        }
      ],
      "name": "eventToPoolTotal",
      "outputs": [
        {
          "internalType": "uint256",
          "name": "",
          "type": "uint256"
        }
      ],
      "stateMutability": "view",
      "type": "function"
    },
    {
      "inputs": [
        {
          "internalType": "bytes32",
          "name": "",
          "type": "bytes32"
        },
        {
          "internalType": "address",
          "name": "",
          "type": "address"
        },
        {
          "internalType": "int8",
          "name": "",
          "type": "int8"
        }
      ],
      "name": "eventToPoolTotalTeam",
      "outputs": [
        {
          "internalType": "uint256",
          "name": "",
          "type": "uint256"
        }
      ],
      "stateMutability": "view",
      "type": "function"
    },
    {
      "inputs": [
        {
          "internalType": "bytes32",
          "name": "",
          "type": "bytes32"
        },
        {
          "internalType": "address",
          "name": "",
          "type": "address"
        }
      ],
      "name": "eventToUserBet",
      "outputs": [
        {
          "internalType": "address",
          "name": "user",
          "type": "address"
        },
        {
          "internalType": "address",
          "name": "token",
          "type": "address"
        },
        {
          "internalType": "bytes32",
          "name": "eventId",
          "type": "bytes32"
        },
        {
          "internalType": "uint256",
          "name": "amount",
          "type": "uint256"
        },
        {
          "internalType": "uint256",
          "name": "timestamp",
          "type": "uint256"
        },
        {
          "internalType": "int8",
          "name": "result",
          "type": "int8"
        },
        {
          "internalType": "bool",
          "name": "claimed",
          "type": "bool"
        }
      ],
      "stateMutability": "view",
      "type": "function"
    },
    {
      "inputs": [
        {
          "internalType": "bytes32",
          "name": "",
          "type": "bytes32"
        },
        {
          "internalType": "uint256",
          "name": "",
          "type": "uint256"
        }
      ],
      "name": "eventToUsers",
      "outputs": [
        {
          "internalType": "address",
          "name": "",
          "type": "address"
        }
      ],
      "stateMutability": "view",
      "type": "function"
    },
    {
      "inputs": [
        {
          "internalType": "address",
          "name": "_user",
          "type": "address"
        }
      ],
      "name": "getAllUserActiveBets",
      "outputs": [
        {
          "components": [
            {
              "internalType": "address",
              "name": "user",
              "type": "address"
            },
            {
              "internalType": "address",
              "name": "token",
              "type": "address"
            },
            {
              "internalType": "bytes32",
              "name": "eventId",
              "type": "bytes32"
            },
            {
              "internalType": "uint256",
              "name": "amount",
              "type": "uint256"
            },
            {
              "internalType": "uint256",
              "name": "timestamp",
              "type": "uint256"
            },
            {
              "internalType": "int8",
              "name": "result",
              "type": "int8"
            },
            {
              "internalType": "bool",
              "name": "claimed",
              "type": "bool"
            }
          ],
          "internalType": "struct MetabetMaskPool.Bet[]",
          "name": "",
          "type": "tuple[]"
        }
      ],
      "stateMutability": "view",
      "type": "function"
    },
    {
      "inputs": [
        {
          "internalType": "address",
          "name": "_user",
          "type": "address"
        }
      ],
      "name": "getAllUserBets",
      "outputs": [
        {
          "components": [
            {
              "internalType": "address",
              "name": "user",
              "type": "address"
            },
            {
              "internalType": "address",
              "name": "token",
              "type": "address"
            },
            {
              "internalType": "bytes32",
              "name": "eventId",
              "type": "bytes32"
            },
            {
              "internalType": "uint256",
              "name": "amount",
              "type": "uint256"
            },
            {
              "internalType": "uint256",
              "name": "timestamp",
              "type": "uint256"
            },
            {
              "internalType": "int8",
              "name": "result",
              "type": "int8"
            },
            {
              "internalType": "bool",
              "name": "claimed",
              "type": "bool"
            }
          ],
          "internalType": "struct MetabetMaskPool.Bet[]",
          "name": "",
          "type": "tuple[]"
        }
      ],
      "stateMutability": "view",
      "type": "function"
    },
    {
      "inputs": [
        {
          "internalType": "bytes32",
          "name": "_eventId",
          "type": "bytes32"
        }
      ],
      "name": "getBets",
      "outputs": [
        {
          "components": [
            {
              "internalType": "address",
              "name": "user",
              "type": "address"
            },
            {
              "internalType": "address",
              "name": "token",
              "type": "address"
            },
            {
              "internalType": "bytes32",
              "name": "eventId",
              "type": "bytes32"
            },
            {
              "internalType": "uint256",
              "name": "amount",
              "type": "uint256"
            },
            {
              "internalType": "uint256",
              "name": "timestamp",
              "type": "uint256"
            },
            {
              "internalType": "int8",
              "name": "result",
              "type": "int8"
            },
            {
              "internalType": "bool",
              "name": "claimed",
              "type": "bool"
            }
          ],
          "internalType": "struct MetabetMaskPool.Bet[]",
          "name": "",
          "type": "tuple[]"
        }
      ],
      "stateMutability": "view",
      "type": "function"
    },
    {
      "inputs": [
        {
          "internalType": "bytes32[]",
          "name": "_eventIds",
          "type": "bytes32[]"
        }
      ],
      "name": "getEvents",
      "outputs": [
        {
          "components": [
            {
              "internalType": "bytes32",
              "name": "id",
              "type": "bytes32"
            },
            {
              "internalType": "string",
              "name": "teamA",
              "type": "string"
            },
            {
              "internalType": "string",
              "name": "teamB",
              "type": "string"
            },
            {
              "internalType": "int8",
              "name": "result",
              "type": "int8"
            },
            {
              "internalType": "uint256",
              "name": "startTimestamp",
              "type": "uint256"
            },
            {
              "internalType": "address",
              "name": "pool",
              "type": "address"
            },
            {
              "internalType": "enum IMetabetMask.EventOutcome",
              "name": "outcome",
              "type": "uint8"
            }
          ],
          "internalType": "struct IMetabetMask.SportEvent[]",
          "name": "",
          "type": "tuple[]"
        }
      ],
      "stateMutability": "view",
      "type": "function"
    },
    {
      "inputs": [],
      "name": "getEventsLength",
      "outputs": [
        {
          "internalType": "uint256",
          "name": "",
          "type": "uint256"
        }
      ],
      "stateMutability": "view",
      "type": "function"
    },
    {
      "inputs": [
        {
          "internalType": "uint256[]",
          "name": "indexes",
          "type": "uint256[]"
        }
      ],
      "name": "getIndexedEvents",
      "outputs": [
        {
          "components": [
            {
              "internalType": "bytes32",
              "name": "id",
              "type": "bytes32"
            },
            {
              "internalType": "string",
              "name": "teamA",
              "type": "string"
            },
            {
              "internalType": "string",
              "name": "teamB",
              "type": "string"
            },
            {
              "internalType": "int8",
              "name": "result",
              "type": "int8"
            },
            {
              "internalType": "uint256",
              "name": "startTimestamp",
              "type": "uint256"
            },
            {
              "internalType": "address",
              "name": "pool",
              "type": "address"
            },
            {
              "internalType": "enum IMetabetMask.EventOutcome",
              "name": "outcome",
              "type": "uint8"
            }
          ],
          "internalType": "struct IMetabetMask.SportEvent[]",
          "name": "",
          "type": "tuple[]"
        }
      ],
      "stateMutability": "view",
      "type": "function"
    },
    {
      "inputs": [
        {
          "internalType": "bytes32",
          "name": "_eventId",
          "type": "bytes32"
        }
      ],
      "name": "getLeaderBoard",
      "outputs": [
        {
          "components": [
            {
              "internalType": "address",
              "name": "user",
              "type": "address"
            },
            {
              "internalType": "address",
              "name": "token",
              "type": "address"
            },
            {
              "internalType": "bytes32",
              "name": "eventId",
              "type": "bytes32"
            },
            {
              "internalType": "uint256",
              "name": "amount",
              "type": "uint256"
            },
            {
              "internalType": "uint256",
              "name": "timestamp",
              "type": "uint256"
            },
            {
              "internalType": "int8",
              "name": "result",
              "type": "int8"
            },
            {
              "internalType": "bool",
              "name": "claimed",
              "type": "bool"
            }
          ],
          "internalType": "struct MetabetMaskPool.Bet[]",
          "name": "",
          "type": "tuple[]"
        }
      ],
      "stateMutability": "view",
      "type": "function"
    },
    {
      "inputs": [],
      "name": "getLiveEvents",
      "outputs": [
        {
          "components": [
            {
              "internalType": "bytes32",
              "name": "id",
              "type": "bytes32"
            },
            {
              "internalType": "string",
              "name": "teamA",
              "type": "string"
            },
            {
              "internalType": "string",
              "name": "teamB",
              "type": "string"
            },
            {
              "internalType": "int8",
              "name": "result",
              "type": "int8"
            },
            {
              "internalType": "uint256",
              "name": "startTimestamp",
              "type": "uint256"
            },
            {
              "internalType": "address",
              "name": "pool",
              "type": "address"
            },
            {
              "internalType": "enum IMetabetMask.EventOutcome",
              "name": "outcome",
              "type": "uint8"
            }
          ],
          "internalType": "struct IMetabetMask.SportEvent[]",
          "name": "",
          "type": "tuple[]"
        }
      ],
      "stateMutability": "view",
      "type": "function"
    },
    {
      "inputs": [
        {
          "internalType": "int8",
          "name": "_team",
          "type": "int8"
        },
        {
          "internalType": "address",
          "name": "_token",
          "type": "address"
        },
        {
          "internalType": "bytes32",
          "name": "_eventId",
          "type": "bytes32"
        }
      ],
      "name": "getOdds",
      "outputs": [
        {
          "internalType": "uint256",
          "name": "",
          "type": "uint256"
        }
      ],
      "stateMutability": "view",
      "type": "function"
    },
    {
      "inputs": [
        {
          "internalType": "address",
          "name": "_user",
          "type": "address"
        },
        {
          "internalType": "address",
          "name": "_token",
          "type": "address"
        },
        {
          "internalType": "bytes32",
          "name": "_eventId",
          "type": "bytes32"
        }
      ],
      "name": "getPayout",
      "outputs": [
        {
          "internalType": "uint256",
          "name": "",
          "type": "uint256"
        }
      ],
      "stateMutability": "view",
      "type": "function"
    },
    {
      "inputs": [
        {
          "internalType": "address",
          "name": "_token",
          "type": "address"
        },
        {
          "internalType": "bytes32",
          "name": "_eventId",
          "type": "bytes32"
        }
      ],
      "name": "getPoolSize",
      "outputs": [
        {
          "internalType": "uint256",
          "name": "",
          "type": "uint256"
        }
      ],
      "stateMutability": "view",
      "type": "function"
    },
    {
      "inputs": [
        {
          "internalType": "address",
          "name": "_token",
          "type": "address"
        },
        {
          "internalType": "bytes32",
          "name": "_eventId",
          "type": "bytes32"
        }
      ],
      "name": "getPoolTotal",
      "outputs": [
        {
          "internalType": "uint256",
          "name": "",
          "type": "uint256"
        }
      ],
      "stateMutability": "view",
      "type": "function"
    },
    {
      "inputs": [
        {
          "internalType": "int8",
          "name": "_team",
          "type": "int8"
        },
        {
          "internalType": "address",
          "name": "_token",
          "type": "address"
        },
        {
          "internalType": "bytes32",
          "name": "_eventId",
          "type": "bytes32"
        }
      ],
      "name": "getPoolTotalTeam",
      "outputs": [
        {
          "internalType": "uint256",
          "name": "",
          "type": "uint256"
        }
      ],
      "stateMutability": "view",
      "type": "function"
    },
    {
      "inputs": [],
      "name": "getPredictableEvents",
      "outputs": [
        {
          "components": [
            {
              "internalType": "bytes32",
              "name": "id",
              "type": "bytes32"
            },
            {
              "internalType": "string",
              "name": "teamA",
              "type": "string"
            },
            {
              "internalType": "string",
              "name": "teamB",
              "type": "string"
            },
            {
              "internalType": "int8",
              "name": "result",
              "type": "int8"
            },
            {
              "internalType": "uint256",
              "name": "startTimestamp",
              "type": "uint256"
            },
            {
              "internalType": "address",
              "name": "pool",
              "type": "address"
            },
            {
              "internalType": "enum IMetabetMask.EventOutcome",
              "name": "outcome",
              "type": "uint8"
            }
          ],
          "internalType": "struct IMetabetMask.SportEvent[]",
          "name": "",
          "type": "tuple[]"
        }
      ],
      "stateMutability": "view",
      "type": "function"
    },
    {
      "inputs": [
        {
          "internalType": "uint256",
          "name": "cursor",
          "type": "uint256"
        },
        {
          "internalType": "uint256",
          "name": "length",
          "type": "uint256"
        }
      ],
      "name": "getTokens",
      "outputs": [
        {
          "internalType": "string[]",
          "name": "",
          "type": "string[]"
        }
      ],
      "stateMutability": "view",
      "type": "function"
    },
    {
      "inputs": [],
      "name": "getTokensLength",
      "outputs": [
        {
          "internalType": "uint256",
          "name": "",
          "type": "uint256"
        }
      ],
      "stateMutability": "view",
      "type": "function"
    },
    {
      "inputs": [
        {
          "internalType": "address",
          "name": "_oracleAddress",
          "type": "address"
        },
        {
          "internalType": "address",
          "name": "_treasury",
          "type": "address"
        }
      ],
      "name": "initialize",
      "outputs": [],
      "stateMutability": "nonpayable",
      "type": "function"
    },
    {
      "inputs": [],
      "name": "owner",
      "outputs": [
        {
          "internalType": "address",
          "name": "",
          "type": "address"
        }
      ],
      "stateMutability": "view",
      "type": "function"
    },
    {
      "inputs": [],
      "name": "proxiableUUID",
      "outputs": [
        {
          "internalType": "bytes32",
          "name": "",
          "type": "bytes32"
        }
      ],
      "stateMutability": "view",
      "type": "function"
    },
    {
      "inputs": [
        {
          "internalType": "string",
          "name": "_tokenName",
          "type": "string"
        }
      ],
      "name": "removeToken",
      "outputs": [],
      "stateMutability": "nonpayable",
      "type": "function"
    },
    {
      "inputs": [],
      "name": "renounceOwnership",
      "outputs": [],
      "stateMutability": "nonpayable",
      "type": "function"
    },
    {
      "inputs": [
        {
          "internalType": "address",
          "name": "_oracleAddress",
          "type": "address"
        }
      ],
      "name": "setOracleAddress",
      "outputs": [],
      "stateMutability": "nonpayable",
      "type": "function"
    },
    {
      "inputs": [],
      "name": "sportOracle",
      "outputs": [
        {
          "internalType": "contract IMetabetMask",
          "name": "",
          "type": "address"
        }
      ],
      "stateMutability": "view",
      "type": "function"
    },
    {
      "inputs": [
        {
          "internalType": "address",
          "name": "",
          "type": "address"
        }
      ],
      "name": "tokenAdded",
      "outputs": [
        {
          "internalType": "bool",
          "name": "",
          "type": "bool"
        }
      ],
      "stateMutability": "view",
      "type": "function"
    },
    {
      "inputs": [
        {
          "internalType": "address",
          "name": "",
          "type": "address"
        }
      ],
      "name": "tokenFees",
      "outputs": [
        {
          "internalType": "uint256",
          "name": "",
          "type": "uint256"
        }
      ],
      "stateMutability": "view",
      "type": "function"
    },
    {
      "inputs": [
        {
          "internalType": "string",
          "name": "",
          "type": "string"
        }
      ],
      "name": "tokenNameToAddress",
      "outputs": [
        {
          "internalType": "address",
          "name": "",
          "type": "address"
        }
      ],
      "stateMutability": "view",
      "type": "function"
    },
    {
      "inputs": [
        {
          "internalType": "uint256",
          "name": "",
          "type": "uint256"
        }
      ],
      "name": "tokens",
      "outputs": [
        {
          "internalType": "string",
          "name": "",
          "type": "string"
        }
      ],
      "stateMutability": "view",
      "type": "function"
    },
    {
      "inputs": [
        {
          "internalType": "address",
          "name": "newOwner",
          "type": "address"
        }
      ],
      "name": "transferOwnership",
      "outputs": [],
      "stateMutability": "nonpayable",
      "type": "function"
    },
    {
      "inputs": [],
      "name": "treasury",
      "outputs": [
        {
          "internalType": "contract ITreasury",
          "name": "",
          "type": "address"
        }
      ],
      "stateMutability": "view",
      "type": "function"
    },
    {
      "inputs": [
        {
          "internalType": "uint256",
          "name": "_fee",
          "type": "uint256"
        },
        {
          "internalType": "address",
          "name": "_token",
          "type": "address"
        }
      ],
      "name": "updateTokenFee",
      "outputs": [],
      "stateMutability": "nonpayable",
      "type": "function"
    },
    {
      "inputs": [
        {
          "internalType": "address",
          "name": "newImplementation",
          "type": "address"
        }
      ],
      "name": "upgradeTo",
      "outputs": [],
      "stateMutability": "nonpayable",
      "type": "function"
    },
    {
      "inputs": [
        {
          "internalType": "address",
          "name": "newImplementation",
          "type": "address"
        },
        {
          "internalType": "bytes",
          "name": "data",
          "type": "bytes"
        }
      ],
      "name": "upgradeToAndCall",
      "outputs": [],
      "stateMutability": "payable",
      "type": "function"
    },
    {
      "inputs": [
        {
          "internalType": "address",
          "name": "_user",
          "type": "address"
        },
        {
          "internalType": "bytes32[]",
          "name": "_eventIds",
          "type": "bytes32[]"
        }
      ],
      "name": "userPredictStatus",
      "outputs": [
        {
          "internalType": "bool[]",
          "name": "",
          "type": "bool[]"
        }
      ],
      "stateMutability": "view",
      "type": "function"
    },
    {
      "inputs": [
        {
          "internalType": "address",
          "name": "",
          "type": "address"
        },
        {
          "internalType": "uint256",
          "name": "",
          "type": "uint256"
        }
      ],
      "name": "userToEvents",
      "outputs": [
        {
          "internalType": "bytes32",
          "name": "",
          "type": "bytes32"
        }
      ],
      "stateMutability": "view",
      "type": "function"
    },
    {
      "stateMutability": "payable",
      "type": "receive"
    }
  ],
  "bytecode": "0x60a06040523060601b60805234801561001757600080fd5b5060805160601c61494861005260003960008181610fe90152818161102901528181611eff01528181611f3f015261207e01526149486000f3fe6080604052600436106102605760003560e01c806361d027b311610144578063965a2786116100b6578063ba2abf261161007a578063ba2abf2614610862578063bb6515e414610882578063c784685c14610897578063dc755091146108da578063f2fde38b146108fa578063fbff64d01461091a57600080fd5b8063965a2786146107ae5780639eab46a8146107ce578063b0b22c2c146107ee578063b0c26ecf1461080e578063b76973601461082357600080fd5b80637cdd87a0116101085780637cdd87a0146106e257806388b4f2d3146107025780638d6d032f146107225780638da5cb5b1461073757806394fd2e5b14610755578063954ed8ea1461077557600080fd5b806361d027b3146106395780636726f39a146106595780636d9a2acb146106795780636dfeb12f1461068c578063715018a6146106cd57600080fd5b80633f8bafd3116101dd5780634b97ca5b116101a15780634b97ca5b1461056c5780634c69c00f1461058c5780634f1ef286146105ac5780634f64b2be146105bf57806352d1902d146105ec5780635cbe247d1461060157600080fd5b80633f8bafd3146104ca57806340b53573146104ea57806347fc216e1461050a578063485cc9551461051f578063494cfc6c1461053f57600080fd5b806333290e4f1161022457806333290e4f146103c85780633659cfe6146103f557806336aba746146104155780633760fe8f1461046f57806339e16d641461049c57600080fd5b806304684b111461026c57806314e5e2ba1461029f5780631d579ebc146102cc5780631f455922146103865780632be1461e146103a857600080fd5b3661026757005b600080fd5b34801561027857600080fd5b5061028c610287366004613d8f565b61095c565b6040519081526020015b60405180910390f35b3480156102ab57600080fd5b506102bf6102ba366004613cae565b61098e565b604051610296919061442f565b3480156102d857600080fd5b506103416102e73660046140b4565b60fe6020908152600092835260408084209091529082528120805460018201546002830154600384015460048501546005909501546001600160a01b039485169693909416949193909281900b9060ff6101009091041687565b604080516001600160a01b039889168152979096166020880152948601939093526060850191909152608084015260000b60a0830152151560c082015260e001610296565b34801561039257600080fd5b506103a66103a13660046141e6565b610b8e565b005b3480156103b457600080fd5b506102bf6103c3366004614084565b610dce565b3480156103d457600080fd5b506103e86103e3366004613fd2565b610f53565b60405161029691906144c1565b34801561040157600080fd5b506103a6610410366004613cae565b610fde565b34801561042157600080fd5b506104576104303660046141e6565b8051602081830181018051610105825292820191909301209152546001600160a01b031681565b6040516001600160a01b039091168152602001610296565b34801561047b57600080fd5b5061048f61048a366004613d42565b6110be565b6040516102969190614350565b3480156104a857600080fd5b5061028c6104b7366004613cae565b6101046020526000908152604090205481565b3480156104d657600080fd5b506104576104e5366004614179565b6114e5565b3480156104f657600080fd5b506103a6610505366004614119565b61151e565b34801561051657600080fd5b5061028c611ae7565b34801561052b57600080fd5b506103a661053a366004613cca565b611b69565b34801561054b57600080fd5b5061055f61055a366004614179565b611cac565b60405161029691906143ce565b34801561057857600080fd5b5061028c6105873660046141c7565b611e07565b34801561059857600080fd5b506103a66105a7366004613cae565b611e3f565b6103a66105ba366004613dba565b611ef4565b3480156105cb57600080fd5b506105df6105da366004614084565b611fc5565b6040516102969190614590565b3480156105f857600080fd5b5061028c612071565b34801561060d57600080fd5b5061028c61061c3660046140b4565b60ff60209081526000928352604080842090915290825290205481565b34801561064557600080fd5b5060fc54610457906001600160a01b031681565b34801561066557600080fd5b5061028c610674366004613d02565b612124565b6103a661068736600461419a565b6121e9565b34801561069857600080fd5b506106bd6106a7366004613cae565b6101066020526000908152604090205460ff1681565b6040519015158152602001610296565b3480156106d957600080fd5b506103a6612678565b3480156106ee57600080fd5b506102bf6106fd366004614084565b61268c565b34801561070e57600080fd5b506103a661071d366004613e42565b612950565b34801561072e57600080fd5b506103e8612f38565b34801561074357600080fd5b506097546001600160a01b0316610457565b34801561076157600080fd5b506103e8610770366004613e10565b612fb9565b34801561078157600080fd5b5061028c6107903660046140b4565b61010160209081526000928352604080842090915290825290205481565b3480156107ba57600080fd5b5060fb54610457906001600160a01b031681565b3480156107da57600080fd5b506103a66107e93660046140b4565b612fea565b3480156107fa57600080fd5b506103a6610809366004614218565b61308d565b34801561081a57600080fd5b5060fd5461028c565b34801561082f57600080fd5b5061028c61083e3660046140d8565b61010060209081526000938452604080852082529284528284209052825290205481565b34801561086e57600080fd5b506102bf61087d366004613cae565b6131f9565b34801561088e57600080fd5b506103e8613393565b3480156108a357600080fd5b5061028c6108b2366004613d8f565b6000908152610101602090815260408083206001600160a01b03949094168352929052205490565b3480156108e657600080fd5b5061028c6108f53660046141c7565b6133d8565b34801561090657600080fd5b506103a6610915366004613cae565b613434565b34801561092657600080fd5b5061028c610935366004613d8f565b600090815260ff602090815260408083206001600160a01b03949094168352929052205490565b610102602052816000526040600020818154811061097957600080fd5b90600052602060002001600091509150505481565b6060600060fb60009054906101000a90046001600160a01b03166001600160a01b031663bb6515e46040518163ffffffff1660e01b815260040160006040518083038186803b1580156109e057600080fd5b505afa1580156109f4573d6000803e3d6000fd5b505050506040513d6000823e601f3d908101601f19168201604052610a1c9190810190613e86565b9050600081516001600160401b03811115610a4757634e487b7160e01b600052604160045260246000fd5b604051908082528060200260200182016040528015610a8057816020015b610a6d6139e8565b815260200190600190039081610a655790505b50905060005b8251811015610b865760fe6000848381518110610ab357634e487b7160e01b600052603260045260246000fd5b60209081029190910181015151825281810192909252604090810160009081206001600160a01b038981168352908452828220835160e081018552815483168152600182015490921694820194909452600284015492810192909252600383015460608301526004830154608083015260059092015480830b830b90920b60a082015261010090910460ff16151560c08201528251839083908110610b6857634e487b7160e01b600052603260045260246000fd5b60200260200101819052508080610b7e90614860565b915050610a86565b509392505050565b610b966134aa565b600061010582604051610ba99190614299565b9081526040805160209281900383019020546001600160a01b0316600081815261010690935291205490915060ff16610c205760405162461bcd60e51b8152602060048201526014602482015273151bdad95b88191bd95cc81b9bdd08195e1a5cdd60621b60448201526064015b60405180910390fd5b6001600160a01b038116600090815261010660205260408120805460ff191690555b60fd54811015610d955782604051602001610c5d9190614299565b6040516020818303038152906040528051906020012060fd8281548110610c9457634e487b7160e01b600052603260045260246000fd5b90600052602060002001604051602001610cae91906142b5565b604051602081830303815290604052805190602001201415610d835760fd8054610cda906001906147cb565b81548110610cf857634e487b7160e01b600052603260045260246000fd5b9060005260206000200160fd8281548110610d2357634e487b7160e01b600052603260045260246000fd5b90600052602060002001908054610d3990614825565b610d44929190613a24565b5060fd805480610d6457634e487b7160e01b600052603160045260246000fd5b600190038181906000526020600020016000610d809190613aaf565b90555b610d8e816001614774565b9050610c42565b506040516001600160a01b038216907f4c910b69fe65a61f7531b9c5042b2329ca7179c77290aa7e2eb3afa3c8511fd390600090a25050565b60008181526101036020526040812054606091816001600160401b03811115610e0757634e487b7160e01b600052604160045260246000fd5b604051908082528060200260200182016040528015610e4057816020015b610e2d6139e8565b815260200190600190039081610e255790505b50905060005b82811015610b8657600085815260fe602090815260408083206101039092528220805491929184908110610e8a57634e487b7160e01b600052603260045260246000fd5b60009182526020808320909101546001600160a01b0390811684528382019490945260409283018220835160e081018552815486168152600182015490951691850191909152600281015492840192909252600382015460608401526004820154608084015260059091015480820b820b90910b60a083015260ff61010090910416151560c08201528251839083908110610f3557634e487b7160e01b600052603260045260246000fd5b60200260200101819052508080610f4b90614860565b915050610e46565b60fb546040516333290e4f60e01b81526060916001600160a01b0316906333290e4f90610f84908590600401614396565b60006040518083038186803b158015610f9c57600080fd5b505afa158015610fb0573d6000803e3d6000fd5b505050506040513d6000823e601f3d908101601f19168201604052610fd89190810190613e86565b92915050565b306001600160a01b037f00000000000000000000000000000000000000000000000000000000000000001614156110275760405162461bcd60e51b8152600401610c17906145a3565b7f00000000000000000000000000000000000000000000000000000000000000006001600160a01b03166110706000805160206148cc833981519152546001600160a01b031690565b6001600160a01b0316146110965760405162461bcd60e51b8152600401610c17906145ef565b61109f81613504565b604080516000808252602082019092526110bb9183919061350c565b50565b6060600082516001600160401b038111156110e957634e487b7160e01b600052604160045260246000fd5b604051908082528060200260200182016040528015611112578160200160208202803683370190505b5060fb546040516394fd2e5b60e01b81529192506000916001600160a01b03909116906394fd2e5b90611149908790600401614396565b60006040518083038186803b15801561116157600080fd5b505afa158015611175573d6000803e3d6000fd5b505050506040513d6000823e601f3d908101601f1916820160405261119d9190810190613e86565b905060005b84518110156114db5760018282815181106111cd57634e487b7160e01b600052603260045260246000fd5b602002602001015160c0015160018111156111f857634e487b7160e01b600052602160045260246000fd5b1461125d5760405162461bcd60e51b815260206004820152602f60248201527f4d6574616265744d61736b506f6f6c3a204576656e7420686173206e6f74206260448201526e19595b88191958da591959081e595d608a1b6064820152608401610c17565b60fb5485516001600160a01b039091169063118e58bd9087908490811061129457634e487b7160e01b600052603260045260246000fd5b60200260200101516040518263ffffffff1660e01b81526004016112ba91815260200190565b60206040518083038186803b1580156112d257600080fd5b505afa1580156112e6573d6000803e3d6000fd5b505050506040513d601f19601f8201168201806040525081019061130a9190614064565b6113645760405162461bcd60e51b815260206004820152602560248201527f4d6574616265744d61736b506f6f6c3a204576656e7420646f6573206e6f7420604482015264195e1a5cdd60da1b6064820152608401610c17565b600060fe600087848151811061138a57634e487b7160e01b600052603260045260246000fd5b602090810291909101810151825281810192909252604090810160009081206001600160a01b038b81168352908452828220835160e081018552815483168152600182015490921694820194909452600284015492810192909252600383015460608301526004830154608083015260059092015480830b830b90920b60a082015261010090910460ff16151560c0820152835190915083908390811061144157634e487b7160e01b600052603260045260246000fd5b60200260200101516060015160000b8160a0015160000b141561149557600184838151811061148057634e487b7160e01b600052603260045260246000fd5b911515602092830291909101909101526114c8565b60008483815181106114b757634e487b7160e01b600052603260045260246000fd5b911515602092830291909101909101525b506114d4816001614774565b90506111a2565b5090949350505050565b610103602052816000526040600020818154811061150257600080fd5b6000918252602090912001546001600160a01b03169150829050565b611526613686565b6040805160018082528183019092526000916020808301908036833701905050905060006101058560405161155b9190614299565b9081526040805160209281900383019020546001600160a01b03166000818152610104909352908220549092506115a09060649061159a9088906136e0565b906136ec565b905060006115ae86836136f8565b905087846000815181106115d257634e487b7160e01b600052603260045260246000fd5b602090810291909101015260fb546040516394fd2e5b60e01b81526000916001600160a01b0316906394fd2e5b9061160e908890600401614396565b60006040518083038186803b15801561162657600080fd5b505afa15801561163a573d6000803e3d6000fd5b505050506040513d6000823e601f3d908101601f191682016040526116629190810190613e86565b60008151811061168257634e487b7160e01b600052603260045260246000fd5b6020026020010151905042816080015110156116b05760405162461bcd60e51b8152600401610c179061463b565b33600081815261010260209081526040808320805460018181018355918552838520018e90558d845261010383528184208054918201815584528284200180546001600160a01b0319169094179093558b825260ff81528282206001600160a01b03881683529052908120805489929061172b908490614774565b90915550506000898152610100602090815260408083206001600160a01b0388168452825280832089840b840b84529091528120805489929061176f908490614774565b90915550506000898152610101602090815260408083206001600160a01b038816845290915281208054600192906117a8908490614774565b9250508190555060006040518060e00160405280336001600160a01b03168152602001866001600160a01b031681526020018b81526020018481526020014281526020018860000b81526020016000151581525090508060fe60008c81526020019081526020016000206000336001600160a01b03166001600160a01b0316815260200190815260200160002060008201518160000160006101000a8154816001600160a01b0302191690836001600160a01b0316021790555060208201518160010160006101000a8154816001600160a01b0302191690836001600160a01b0316021790555060408201518160020155606082015181600301556080820151816004015560a08201518160050160006101000a81548160ff021916908360000b60ff16021790555060c08201518160050160016101000a81548160ff0219169083151502179055509050506000856001600160a01b03166323b872dd338560a001518c6040518463ffffffff1660e01b8152600401611949939291906001600160a01b039384168152919092166020820152604081019190915260600190565b602060405180830381600087803b15801561196357600080fd5b505af1158015611977573d6000803e3d6000fd5b505050506040513d601f19601f8201168201806040525081019061199b9190614064565b9050806119a757600080fd5b6040516311d3d05360e21b815261010590600401908152604051908190036020019020546001600160a01b038781169116141580611a175750604051661351551050915560ca1b815261010590600701908152604051908190036020019020546001600160a01b03878116911614155b15611a8f5760a083015160fc546040516301e3366760e01b81526001600160a01b0389811660048301529182166024820152604481018890529116906301e3366790606401600060405180830381600087803b158015611a7657600080fd5b505af1158015611a8a573d6000803e3d6000fd5b505050505b6040805160008a900b81526020810186905233918d917f8b25b88f52cfa9737af5a016457e58c0c6232999d2cd00ac17a9d29e89b30ed5910160405180910390a350505050505050611ae1600160c955565b50505050565b60fb54604080516323fe10b760e11b815290516000926001600160a01b0316916347fc216e916004808301926020929190829003018186803b158015611b2c57600080fd5b505afa158015611b40573d6000803e3d6000fd5b505050506040513d601f19601f82011682018060405250810190611b64919061409c565b905090565b600054610100900460ff1615808015611b895750600054600160ff909116105b80611ba35750303b158015611ba3575060005460ff166001145b611c065760405162461bcd60e51b815260206004820152602e60248201527f496e697469616c697a61626c653a20636f6e747261637420697320616c72656160448201526d191e481a5b9a5d1a585b1a5e995960921b6064820152608401610c17565b6000805460ff191660011790558015611c29576000805461ff0019166101001790555b611c31613704565b60fb80546001600160a01b038086166001600160a01b03199283161790925560fc8054928516929091169190911790558015611ca7576000805461ff0019169055604051600181527f7f26b83ff96e1f2b6a682f133852f6798a09c465da95921460cefb38474024989060200160405180910390a15b505050565b60606000826001600160401b03811115611cd657634e487b7160e01b600052604160045260246000fd5b604051908082528060200260200182016040528015611d0957816020015b6060815260200190600190039081611cf45790505b509050835b83811015610b865760fd8181548110611d3757634e487b7160e01b600052603260045260246000fd5b906000526020600020018054611d4c90614825565b80601f0160208091040260200160405190810160405280929190818152602001828054611d7890614825565b8015611dc55780601f10611d9a57610100808354040283529160200191611dc5565b820191906000526020600020905b815481529060010190602001808311611da857829003601f168201915b5050505050828281518110611dea57634e487b7160e01b600052603260045260246000fd5b6020908102919091010152611e00816001614774565b9050611d0e565b6000818152610100602090815260408083206001600160a01b0386168452825280832086840b840b84529091529020545b9392505050565b611e476134aa565b806001600160a01b038116611e9e5760405162461bcd60e51b815260206004820152601860248201527f416464726573732030206973206e6f7420616c6c6f77656400000000000000006044820152606401610c17565b60fb80546001600160a01b0319166001600160a01b0384169081179091556040519081527fdd82bdfc28fcc826c53263dc2a2b6083e27e92699ebfee617227e08e21c202f0906020015b60405180910390a15050565b306001600160a01b037f0000000000000000000000000000000000000000000000000000000000000000161415611f3d5760405162461bcd60e51b8152600401610c17906145a3565b7f00000000000000000000000000000000000000000000000000000000000000006001600160a01b0316611f866000805160206148cc833981519152546001600160a01b031690565b6001600160a01b031614611fac5760405162461bcd60e51b8152600401610c17906145ef565b611fb582613504565b611fc18282600161350c565b5050565b60fd8181548110611fd557600080fd5b906000526020600020016000915090508054611ff090614825565b80601f016020809104026020016040519081016040528092919081815260200182805461201c90614825565b80156120695780601f1061203e57610100808354040283529160200191612069565b820191906000526020600020905b81548152906001019060200180831161204c57829003601f168201915b505050505081565b6000306001600160a01b037f000000000000000000000000000000000000000000000000000000000000000016146121115760405162461bcd60e51b815260206004820152603860248201527f555550535570677261646561626c653a206d757374206e6f742062652063616c60448201527f6c6564207468726f7567682064656c656761746563616c6c00000000000000006064820152608401610c17565b506000805160206148cc83398151915290565b600081815260fe602090815260408083206001600160a01b038781168552908352818420825160e081018452815483168152600182015490921693820193909352600283015491810191909152600382015460608201526004820154608082015260059091015480830b830b830b60a0830181905261010090910460ff16151560c083015282906121b69086866133d8565b905083826040015114156121dd578082606001516121d491906147ac565b92505050611e38565b50600095945050505050565b6121f1613686565b813410156121fe57600080fd5b60008080526101046020527f0c81ce4857d5b94b8c75139d9e9e2911ece8cd067eddba6000e40a08e09d56435461223d9060649061159a9086906136e0565b9050600061224b84836136f8565b6040805160018082528183019092529192506000919060208083019080368337019050509050858160008151811061229357634e487b7160e01b600052603260045260246000fd5b602090810291909101015260fb546040516394fd2e5b60e01b81526000916001600160a01b0316906394fd2e5b906122cf908590600401614396565b60006040518083038186803b1580156122e757600080fd5b505afa1580156122fb573d6000803e3d6000fd5b505050506040513d6000823e601f3d908101601f191682016040526123239190810190613e86565b60008151811061234357634e487b7160e01b600052603260045260246000fd5b6020026020010151905042816080015110156123715760405162461bcd60e51b8152600401610c179061463b565b33600081815261010260209081526040808320805460018181018355918552838520018c90558b845261010383528184208054918201815584528284200180546001600160a01b03191690941790935589825260ff8152828220828052905290812080548892906123e3908490614774565b9091555050600087815261010060209081526040808320838052825280832088840b840b84529091528120805488929061241e908490614774565b9091555050600087815261010160209081526040808320838052909152812080546001929061244e908490614774565b9250508190555060006040518060e00160405280336001600160a01b0316815260200160006001600160a01b031681526020018981526020018581526020014281526020018760000b81526020016000151581525090508060fe60008a81526020019081526020016000206000336001600160a01b03166001600160a01b0316815260200190815260200160002060008201518160000160006101000a8154816001600160a01b0302191690836001600160a01b0316021790555060208201518160010160006101000a8154816001600160a01b0302191690836001600160a01b0316021790555060408201518160020155606082015181600301556080820151816004015560a08201518160050160006101000a81548160ff021916908360000b60ff16021790555060c08201518160050160016101000a81548160ff02191690831515021790555090505060fc60009054906101000a90046001600160a01b03166001600160a01b03166108fc869081150290604051600060405180830381858888f193505050501580156125e9573d6000803e3d6000fd5b508160a001516001600160a01b03166108fc859081150290604051600060405180830381858888f19350505050158015612627573d6000803e3d6000fd5b5060408051600088900b81526020810186905233918a917f8b25b88f52cfa9737af5a016457e58c0c6232999d2cd00ac17a9d29e89b30ed5910160405180910390a35050505050611ca7600160c955565b6126806134aa565b61268a6000613733565b565b606080600061269a84610dce565b60408051600180825281830190925291925060009190602080830190803683370190505090506000805b83518110156127fb578381815181106126ed57634e487b7160e01b600052603260045260246000fd5b6020026020010151604001518360008151811061271a57634e487b7160e01b600052603260045260246000fd5b60200260200101818152505061275b84828151811061274957634e487b7160e01b600052603260045260246000fd5b602002602001015160000151846110be565b60008151811061277b57634e487b7160e01b600052603260045260246000fd5b6020026020010151156127e9578381815181106127a857634e487b7160e01b600052603260045260246000fd5b60200260200101518583815181106127d057634e487b7160e01b600052603260045260246000fd5b60209081029190910101526127e6826001614774565b91505b806127f381614860565b9150506126c4565b5060015b845181101561294557600085828151811061282a57634e487b7160e01b600052603260045260246000fd5b6020026020010151606001519050600060018361284791906147cb565b90505b8187828151811061286b57634e487b7160e01b600052603260045260246000fd5b60200260200101516060015111156128f65786818151811061289d57634e487b7160e01b600052603260045260246000fd5b602002602001015160600151878260016128b79190614774565b815181106128d557634e487b7160e01b600052603260045260246000fd5b602090810291909101015160600152806128ee8161480e565b91505061284a565b8187612903836001614774565b8151811061292157634e487b7160e01b600052603260045260246000fd5b6020908102919091010151606001525061293e9050816001614774565b90506127ff565b509295945050505050565b612958613686565b600082516001600160401b0381111561298157634e487b7160e01b600052604160045260246000fd5b6040519080825280602002602001820160405280156129aa578160200160208202803683370190505b509050600083516001600160401b038111156129d657634e487b7160e01b600052604160045260246000fd5b6040519080825280602002602001820160405280156129ff578160200160208202803683370190505b5060fb546040516394fd2e5b60e01b81529192506000916001600160a01b03909116906394fd2e5b90612a36908890600401614396565b60006040518083038186803b158015612a4e57600080fd5b505afa158015612a62573d6000803e3d6000fd5b505050506040513d6000823e601f3d908101601f19168201604052612a8a9190810190613e86565b9050612a9633866110be565b915060005b8551811015612f2a57858181518110612ac457634e487b7160e01b600052603260045260246000fd5b6020026020010151848281518110612aec57634e487b7160e01b600052603260045260246000fd5b602002602001018181525050828181518110612b1857634e487b7160e01b600052603260045260246000fd5b6020026020010151612b825760405162461bcd60e51b815260206004820152602d60248201527f4d6574616265744d61736b506f6f6c3a204f6e6c792077696e6e65722063616e60448201526c0818db185a5b481c995dd85c99609a1b6064820152608401610c17565b60fe6000878381518110612ba657634e487b7160e01b600052603260045260246000fd5b60209081029190910181015182528181019290925260409081016000908120338252909252902060050154610100900460ff1615612c3f5760405162461bcd60e51b815260206004820152603060248201527f4d6574616265744d61736b506f6f6c3a20557365722068617320616c7265616460448201526f1e4818db185a5b5959081c995dd85c9960821b6064820152608401610c17565b600060fe6000888481518110612c6557634e487b7160e01b600052603260045260246000fd5b6020908102919091018101518252818101929092526040908101600090812033808352935290812060058101805461ff00191661010017905589519093509091612cd89189908b9087908110612ccb57634e487b7160e01b600052603260045260246000fd5b6020026020010151612124565b90506001600160a01b038716612e1157838381518110612d0857634e487b7160e01b600052603260045260246000fd5b602002602001015160a001516001600160a01b0316632e1a7d4d826040518263ffffffff1660e01b8152600401612d4191815260200190565b600060405180830381600087803b158015612d5b57600080fd5b505af1158015612d6f573d6000803e3d6000fd5b50506040516000925033915083908381818185875af1925050503d8060008114612db5576040519150601f19603f3d011682016040523d82523d6000602084013e612dba565b606091505b5050905080612e0b5760405162461bcd60e51b815260206004820152601d60248201527f636c61696d206f6620626e622077617320756e7375636365737366756c0000006044820152606401610c17565b50612eaa565b838381518110612e3157634e487b7160e01b600052603260045260246000fd5b602090810291909101015160a001516040516301e3366760e01b81526001600160a01b03898116600483015233602483015260448201849052909116906301e3366790606401600060405180830381600087803b158015612e9157600080fd5b505af1158015612ea5573d6000803e3d6000fd5b505050505b878381518110612eca57634e487b7160e01b600052603260045260246000fd5b6020026020010151336001600160a01b03167f33e1e4350f7b57099d5489c172fc55e9e32d4d3906a6e36710fae5ed9f5eef0f83604051612f0d91815260200190565b60405180910390a350508080612f2290614860565b915050612a9b565b50505050611fc1600160c955565b60fb5460408051630b4184e760e41b815290516060926001600160a01b03169163b4184e70916004808301926000929190829003018186803b158015612f7d57600080fd5b505afa158015612f91573d6000803e3d6000fd5b505050506040513d6000823e601f3d908101601f19168201604052611b649190810190613e86565b60fb546040516394fd2e5b60e01b81526060916001600160a01b0316906394fd2e5b90610f84908590600401614396565b612ff26134aa565b8161303f5760405162461bcd60e51b815260206004820181905260248201527f4d6574616265744d61736b506f6f6c3a206665652063616e6e6f7420626520306044820152606401610c17565b6001600160a01b0381166000908152610104602052604090819020839055517ff61e39fefd2c73a068ca37aab6526a88f6561b409bb2898b189f15e1adae6f0790611ee89084815260200190565b6130956134aa565b6001600160a01b0381166000908152610106602052604090205460ff16156130f55760405162461bcd60e51b8152602060048201526013602482015272151bdad95b88185b1c9958591e481859191959606a1b6044820152606401610c17565b6001600160a01b0381166000908152610106602052604090819020805460ff191660011790555181906101059061312d908590614299565b9081526040516020918190038201902080546001600160a01b0319166001600160a01b03939093169290921790915560fd8054600181018255600091909152835161319f927f9346ac6dd7de6b96975fec380d4d994c4c12e6a8897544f22915316cc6cca28090920191850190613ae9565b506001600160a01b038116600081815261010460205260409081902060019055517f6d97a31531bdb3c43d920bc996ec8b9fd7733f5f55a81cd74700f88631fc6032906131ed908590614590565b60405180910390a25050565b6001600160a01b03811660009081526101026020526040812054606091816001600160401b0381111561323c57634e487b7160e01b600052604160045260246000fd5b60405190808252806020026020018201604052801561327557816020015b6132626139e8565b81526020019060019003908161325a5790505b50905060005b82811015610b86576001600160a01b038516600090815261010260205260408120805460fe929190849081106132c157634e487b7160e01b600052603260045260246000fd5b600091825260208083209190910154835282810193909352604091820181206001600160a01b038981168352908452828220835160e081018552815483168152600182015490921694820194909452600284015492810192909252600383015460608301526004830154608083015260059092015480830b830b90920b60a082015261010090910460ff16151560c0820152825183908390811061337557634e487b7160e01b600052603260045260246000fd5b6020026020010181905250808061338b90614860565b91505061327b565b60fb5460408051632ed9457960e21b815290516060926001600160a01b03169163bb6515e4916004808301926000929190829003018186803b158015612f7d57600080fd5b6000806133e6858585611e07565b600084815260ff602090815260408083206001600160a01b0389168452909152902054909150811580159061341a57508015155b15613429576121d4828261478c565b600092505050611e38565b61343c6134aa565b6001600160a01b0381166134a15760405162461bcd60e51b815260206004820152602660248201527f4f776e61626c653a206e6577206f776e657220697320746865207a65726f206160448201526564647265737360d01b6064820152608401610c17565b6110bb81613733565b6097546001600160a01b0316331461268a5760405162461bcd60e51b815260206004820181905260248201527f4f776e61626c653a2063616c6c6572206973206e6f7420746865206f776e65726044820152606401610c17565b6110bb6134aa565b7f4910fdfa16fed3260ed0e7147f7cc6da11a60208b5b9406d12a635614ffd91435460ff161561353f57611ca783613785565b826001600160a01b03166352d1902d6040518163ffffffff1660e01b815260040160206040518083038186803b15801561357857600080fd5b505afa9250505080156135a8575060408051601f3d908101601f191682019092526135a59181019061409c565b60015b61360b5760405162461bcd60e51b815260206004820152602e60248201527f45524331393637557067726164653a206e657720696d706c656d656e7461746960448201526d6f6e206973206e6f74205555505360901b6064820152608401610c17565b6000805160206148cc833981519152811461367a5760405162461bcd60e51b815260206004820152602960248201527f45524331393637557067726164653a20756e737570706f727465642070726f786044820152681a58589b195555525160ba1b6064820152608401610c17565b50611ca7838383613821565b600260c95414156136d95760405162461bcd60e51b815260206004820152601f60248201527f5265656e7472616e637947756172643a207265656e7472616e742063616c6c006044820152606401610c17565b600260c955565b6000611e3882846147ac565b6000611e38828461478c565b6000611e3882846147cb565b600054610100900460ff1661372b5760405162461bcd60e51b8152600401610c1790614687565b61268a613846565b609780546001600160a01b038381166001600160a01b0319831681179093556040519116919082907f8be0079c531659141344cd1fd0a4f28419497f9722a3daafe3b4186f6b6457e090600090a35050565b6001600160a01b0381163b6137f25760405162461bcd60e51b815260206004820152602d60248201527f455243313936373a206e657720696d706c656d656e746174696f6e206973206e60448201526c1bdd08184818dbdb9d1c9858dd609a1b6064820152608401610c17565b6000805160206148cc83398151915280546001600160a01b0319166001600160a01b0392909216919091179055565b61382a83613876565b6000825111806138375750805b15611ca757611ae183836138b6565b600054610100900460ff1661386d5760405162461bcd60e51b8152600401610c1790614687565b61268a33613733565b61387f81613785565b6040516001600160a01b038216907fbc7cd75a20ee27fd9adebab32041f755214dbc6bffa90cc0225b39da2e5c2d3b90600090a250565b60606001600160a01b0383163b61391e5760405162461bcd60e51b815260206004820152602660248201527f416464726573733a2064656c65676174652063616c6c20746f206e6f6e2d636f6044820152651b9d1c9858dd60d21b6064820152608401610c17565b600080846001600160a01b0316846040516139399190614299565b600060405180830381855af49150503d8060008114613974576040519150601f19603f3d011682016040523d82523d6000602084013e613979565b606091505b50915091506139a182826040518060600160405280602781526020016148ec602791396139aa565b95945050505050565b606083156139b9575081611e38565b611e3883838151156139ce5781518083602001fd5b8060405162461bcd60e51b8152600401610c179190614590565b6040805160e081018252600080825260208201819052918101829052606081018290526080810182905260a0810182905260c081019190915290565b828054613a3090614825565b90600052602060002090601f016020900481019282613a525760008555613a9f565b82601f10613a635780548555613a9f565b82800160010185558215613a9f57600052602060002091601f016020900482015b82811115613a9f578254825591600101919060010190613a84565b50613aab929150613b5d565b5090565b508054613abb90614825565b6000825580601f10613acb575050565b601f0160209004906000526020600020908101906110bb9190613b5d565b828054613af590614825565b90600052602060002090601f016020900481019282613b175760008555613a9f565b82601f10613b3057805160ff1916838001178555613a9f565b82800160010185558215613a9f579182015b82811115613a9f578251825591602001919060010190613b42565b5b80821115613aab5760008155600101613b5e565b6000613b85613b808461474d565b6146fa565b9050828152838383011115613b9957600080fd5b828260208301376000602084830101529392505050565b8051613bbb816148a7565b919050565b600082601f830112613bd0578081fd5b81356020613be0613b808361472a565b80838252828201915082860187848660051b8901011115613bff578586fd5b855b85811015613c1d57813584529284019290840190600101613c01565b5090979650505050505050565b805160028110613bbb57600080fd5b8051613bbb816148bc565b600082601f830112613c54578081fd5b611e3883833560208501613b72565b600082601f830112613c73578081fd5b8151613c81613b808261474d565b818152846020838601011115613c95578283fd5b613ca68260208301602087016147e2565b949350505050565b600060208284031215613cbf578081fd5b8135611e38816148a7565b60008060408385031215613cdc578081fd5b8235613ce7816148a7565b91506020830135613cf7816148a7565b809150509250929050565b600080600060608486031215613d16578081fd5b8335613d21816148a7565b92506020840135613d31816148a7565b929592945050506040919091013590565b60008060408385031215613d54578182fd5b8235613d5f816148a7565b915060208301356001600160401b03811115613d79578182fd5b613d8585828601613bc0565b9150509250929050565b60008060408385031215613da1578182fd5b8235613dac816148a7565b946020939093013593505050565b60008060408385031215613dcc578182fd5b8235613dd7816148a7565b915060208301356001600160401b03811115613df1578182fd5b8301601f81018513613e01578182fd5b613d8585823560208401613b72565b600060208284031215613e21578081fd5b81356001600160401b03811115613e36578182fd5b613ca684828501613bc0565b60008060408385031215613e54578182fd5b82356001600160401b03811115613e69578283fd5b613e7585828601613bc0565b9250506020830135613cf7816148a7565b60006020808385031215613e98578182fd5b82516001600160401b0380821115613eae578384fd5b818501915085601f830112613ec1578384fd5b8151613ecf613b808261472a565b80828252858201915085850189878560051b8801011115613eee578788fd5b875b84811015613fc357815186811115613f0657898afd5b870160e0818d03601f1901811315613f1c578a8bfd5b613f246146d2565b8a8301518152604083015189811115613f3b578c8dfd5b613f498f8d83870101613c63565b8c83015250606083015189811115613f5f578c8dfd5b613f6d8f8d83870101613c63565b604083015250613f7f60808401613c39565b606082015260a08301516080820152613f9a60c08401613bb0565b60a0820152613faa828401613c2a565b60c0820152865250509287019290870190600101613ef0565b50909998505050505050505050565b60006020808385031215613fe4578182fd5b82356001600160401b03811115613ff9578283fd5b8301601f81018513614009578283fd5b8035614017613b808261472a565b80828252848201915084840188868560051b8701011115614036578687fd5b8694505b8385101561405857803583526001949094019391850191850161403a565b50979650505050505050565b600060208284031215614075578081fd5b81518015158114611e38578182fd5b600060208284031215614095578081fd5b5035919050565b6000602082840312156140ad578081fd5b5051919050565b600080604083850312156140c6578182fd5b823591506020830135613cf7816148a7565b6000806000606084860312156140ec578081fd5b8335925060208401356140fe816148a7565b9150604084013561410e816148bc565b809150509250925092565b6000806000806080858703121561412e578182fd5b8435935060208501356001600160401b0381111561414a578283fd5b61415687828801613c44565b93505060408501359150606085013561416e816148bc565b939692955090935050565b6000806040838503121561418b578182fd5b50508035926020909101359150565b6000806000606084860312156141ae578081fd5b8335925060208401359150604084013561410e816148bc565b6000806000606084860312156141db578081fd5b8335613d21816148bc565b6000602082840312156141f7578081fd5b81356001600160401b0381111561420c578182fd5b613ca684828501613c44565b6000806040838503121561422a578182fd5b82356001600160401b0381111561423f578283fd5b613e7585828601613c44565b6002811061426957634e487b7160e01b600052602160045260246000fd5b9052565b600081518084526142858160208601602086016147e2565b601f01601f19169290920160200192915050565b600082516142ab8184602087016147e2565b9190910192915050565b600080835482600182811c9150808316806142d157607f831692505b60208084108214156142f157634e487b7160e01b87526022600452602487fd5b818015614305576001811461431657614342565b60ff19861689528489019650614342565b60008a815260209020885b8681101561433a5781548b820152908501908301614321565b505084890196505b509498975050505050505050565b6020808252825182820181905260009190848201906040850190845b8181101561438a57835115158352928401929184019160010161436c565b50909695505050505050565b6020808252825182820181905260009190848201906040850190845b8181101561438a578351835292840192918401916001016143b2565b6000602080830181845280855180835260408601915060408160051b8701019250838701855b8281101561442257603f1988860301845261441085835161426d565b945092850192908501906001016143f4565b5092979650505050505050565b602080825282518282018190526000919060409081850190868401855b828110156144b457815180516001600160a01b0390811686528782015116878601528581015186860152606080820151908601526080808201519086015260a080820151890b9086015260c09081015115159085015260e0909301929085019060010161444c565b5091979650505050505050565b60006020808301818452808551808352604092508286019150828160051b870101848801865b8381101561458257603f19898403018552815160e08151855288820151818a8701526145158287018261426d565b915050878201518582038987015261452d828261426d565b6060848101518d0b908801526080808501519088015260a0808501516001600160a01b03169088015260c09384015193909250905061456e8187018461424b565b5095880195935050908601906001016144e7565b509098975050505050505050565b602081526000611e38602083018461426d565b6020808252602c908201527f46756e6374696f6e206d7573742062652063616c6c6564207468726f7567682060408201526b19195b1959d85d1958d85b1b60a21b606082015260800190565b6020808252602c908201527f46756e6374696f6e206d7573742062652063616c6c6564207468726f7567682060408201526b6163746976652070726f787960a01b606082015260800190565b6020808252602c908201527f4d6574616265744d61736b506f6f6c3a204576656e742068617320737461727460408201526b32b21037b91032b73232b21760a11b606082015260800190565b6020808252602b908201527f496e697469616c697a61626c653a20636f6e7472616374206973206e6f74206960408201526a6e697469616c697a696e6760a81b606082015260800190565b60405160e081016001600160401b03811182821017156146f4576146f4614891565b60405290565b604051601f8201601f191681016001600160401b038111828210171561472257614722614891565b604052919050565b60006001600160401b0382111561474357614743614891565b5060051b60200190565b60006001600160401b0382111561476657614766614891565b50601f01601f191660200190565b600082198211156147875761478761487b565b500190565b6000826147a757634e487b7160e01b81526012600452602481fd5b500490565b60008160001904831182151516156147c6576147c661487b565b500290565b6000828210156147dd576147dd61487b565b500390565b60005b838110156147fd5781810151838201526020016147e5565b83811115611ae15750506000910152565b60008161481d5761481d61487b565b506000190190565b600181811c9082168061483957607f821691505b6020821081141561485a57634e487b7160e01b600052602260045260246000fd5b50919050565b60006000198214156148745761487461487b565b5060010190565b634e487b7160e01b600052601160045260246000fd5b634e487b7160e01b600052604160045260246000fd5b6001600160a01b03811681146110bb57600080fd5b8060000b81146110bb57600080fdfe360894a13ba1a3210667c828492db98dca3e2076cc3735a920a3ca505d382bbc416464726573733a206c6f772d6c6576656c2064656c65676174652063616c6c206661696c6564a2646970667358221220c96f4bc4baecd75e8b8a6f25fff16fa294dc78a311a6503de6c4492a199af70664736f6c63430008040033",
  "linkReferences": {},
  "deployedLinkReferences": {}
}