{
  "_format": "hh-sol-artifact-1",
  "contractName": "MetabetMaskPool",
  "sourceName": "contracts/MetabetMaskPool.sol",
  "abi": [
    {
      "inputs": [
        {
          "internalType": "address",
          "name": "_oracleAddress",
          "type": "address"
        },
        {
          "internalType": "address",
          "name": "_treasury",
          "type": "address"
        },
        {
          "internalType": "contract IERC20",
          "name": "_goal",
          "type": "address"
        },
        {
          "internalType": "contract IERC20",
          "name": "_busd",
          "type": "address"
        }
      ],
      "stateMutability": "nonpayable",
      "type": "constructor"
    },
    {
      "anonymous": false,
      "inputs": [
        {
          "indexed": true,
          "internalType": "bytes32",
          "name": "_eventId",
          "type": "bytes32"
        },
        {
          "indexed": true,
          "internalType": "address",
          "name": "_player",
          "type": "address"
        },
        {
          "indexed": false,
          "internalType": "int8",
          "name": "result",
          "type": "int8"
        },
        {
          "indexed": false,
          "internalType": "uint256",
          "name": "_amount",
          "type": "uint256"
        }
      ],
      "name": "BetPlaced",
      "type": "event"
    },
    {
      "anonymous": false,
      "inputs": [
        {
          "indexed": true,
          "internalType": "address",
          "name": "user",
          "type": "address"
        },
        {
          "indexed": true,
          "internalType": "bytes32",
          "name": "eventId",
          "type": "bytes32"
        },
        {
          "indexed": false,
          "internalType": "uint256",
          "name": "reward",
          "type": "uint256"
        }
      ],
      "name": "Claim",
      "type": "event"
    },
    {
      "anonymous": false,
      "inputs": [
        {
          "indexed": false,
          "internalType": "address",
          "name": "_address",
          "type": "address"
        }
      ],
      "name": "OracleAddressSet",
      "type": "event"
    },
    {
      "anonymous": false,
      "inputs": [
        {
          "indexed": true,
          "internalType": "address",
          "name": "previousOwner",
          "type": "address"
        },
        {
          "indexed": true,
          "internalType": "address",
          "name": "newOwner",
          "type": "address"
        }
      ],
      "name": "OwnershipTransferred",
      "type": "event"
    },
    {
      "anonymous": false,
      "inputs": [
        {
          "indexed": false,
          "internalType": "uint256",
          "name": "newFee",
          "type": "uint256"
        }
      ],
      "name": "TokenFeeUpdated",
      "type": "event"
    },
    {
      "inputs": [],
      "name": "BUSD",
      "outputs": [
        {
          "internalType": "contract IERC20",
          "name": "",
          "type": "address"
        }
      ],
      "stateMutability": "view",
      "type": "function"
    },
    {
      "inputs": [],
      "name": "GOAL",
      "outputs": [
        {
          "internalType": "contract IERC20",
          "name": "",
          "type": "address"
        }
      ],
      "stateMutability": "view",
      "type": "function"
    },
    {
      "inputs": [
        {
          "internalType": "bytes32",
          "name": "_eventId",
          "type": "bytes32"
        },
        {
          "internalType": "address",
          "name": "_token",
          "type": "address"
        },
        {
          "internalType": "uint256",
          "name": "_amount",
          "type": "uint256"
        },
        {
          "internalType": "int8",
          "name": "_predictResult",
          "type": "int8"
        }
      ],
      "name": "bet",
      "outputs": [],
      "stateMutability": "nonpayable",
      "type": "function"
    },
    {
      "inputs": [
        {
          "internalType": "bytes32",
          "name": "_eventId",
          "type": "bytes32"
        },
        {
          "internalType": "uint256",
          "name": "_amount",
          "type": "uint256"
        },
        {
          "internalType": "int8",
          "name": "_predictResult",
          "type": "int8"
        }
      ],
      "name": "betBNB",
      "outputs": [],
      "stateMutability": "payable",
      "type": "function"
    },
    {
      "inputs": [
        {
          "internalType": "bytes32[]",
          "name": "_eventIds",
          "type": "bytes32[]"
        },
        {
          "internalType": "address",
          "name": "_token",
          "type": "address"
        }
      ],
      "name": "claim",
      "outputs": [],
      "stateMutability": "nonpayable",
      "type": "function"
    },
    {
      "inputs": [
        {
          "internalType": "bytes32",
          "name": "",
          "type": "bytes32"
        },
        {
          "internalType": "address",
          "name": "",
          "type": "address"
        }
      ],
      "name": "eventToPoolSize",
      "outputs": [
        {
          "internalType": "uint256",
          "name": "",
          "type": "uint256"
        }
      ],
      "stateMutability": "view",
      "type": "function"
    },
    {
      "inputs": [
        {
          "internalType": "bytes32",
          "name": "",
          "type": "bytes32"
        },
        {
          "internalType": "address",
          "name": "",
          "type": "address"
        }
      ],
      "name": "eventToPoolTotal",
      "outputs": [
        {
          "internalType": "uint256",
          "name": "",
          "type": "uint256"
        }
      ],
      "stateMutability": "view",
      "type": "function"
    },
    {
      "inputs": [
        {
          "internalType": "bytes32",
          "name": "",
          "type": "bytes32"
        },
        {
          "internalType": "address",
          "name": "",
          "type": "address"
        },
        {
          "internalType": "int8",
          "name": "",
          "type": "int8"
        }
      ],
      "name": "eventToPoolTotalTeam",
      "outputs": [
        {
          "internalType": "uint256",
          "name": "",
          "type": "uint256"
        }
      ],
      "stateMutability": "view",
      "type": "function"
    },
    {
      "inputs": [
        {
          "internalType": "bytes32",
          "name": "",
          "type": "bytes32"
        },
        {
          "internalType": "address",
          "name": "",
          "type": "address"
        }
      ],
      "name": "eventToUserBet",
      "outputs": [
        {
          "internalType": "address",
          "name": "user",
          "type": "address"
        },
        {
          "internalType": "address",
          "name": "token",
          "type": "address"
        },
        {
          "internalType": "bytes32",
          "name": "eventId",
          "type": "bytes32"
        },
        {
          "internalType": "uint256",
          "name": "amount",
          "type": "uint256"
        },
        {
          "internalType": "uint256",
          "name": "timestamp",
          "type": "uint256"
        },
        {
          "internalType": "int8",
          "name": "result",
          "type": "int8"
        },
        {
          "internalType": "bool",
          "name": "claimed",
          "type": "bool"
        }
      ],
      "stateMutability": "view",
      "type": "function"
    },
    {
      "inputs": [
        {
          "internalType": "bytes32",
          "name": "",
          "type": "bytes32"
        },
        {
          "internalType": "uint256",
          "name": "",
          "type": "uint256"
        }
      ],
      "name": "eventToUsers",
      "outputs": [
        {
          "internalType": "address",
          "name": "",
          "type": "address"
        }
      ],
      "stateMutability": "view",
      "type": "function"
    },
    {
      "inputs": [
        {
          "internalType": "bytes32",
          "name": "_eventId",
          "type": "bytes32"
        }
      ],
      "name": "getBets",
      "outputs": [
        {
          "components": [
            {
              "internalType": "address",
              "name": "user",
              "type": "address"
            },
            {
              "internalType": "address",
              "name": "token",
              "type": "address"
            },
            {
              "internalType": "bytes32",
              "name": "eventId",
              "type": "bytes32"
            },
            {
              "internalType": "uint256",
              "name": "amount",
              "type": "uint256"
            },
            {
              "internalType": "uint256",
              "name": "timestamp",
              "type": "uint256"
            },
            {
              "internalType": "int8",
              "name": "result",
              "type": "int8"
            },
            {
              "internalType": "bool",
              "name": "claimed",
              "type": "bool"
            }
          ],
          "internalType": "struct MetabetMaskPool.Bet[]",
          "name": "",
          "type": "tuple[]"
        }
      ],
      "stateMutability": "view",
      "type": "function"
    },
    {
      "inputs": [
        {
          "internalType": "bytes32[]",
          "name": "_eventIds",
          "type": "bytes32[]"
        }
      ],
      "name": "getEvents",
      "outputs": [
        {
          "components": [
            {
              "internalType": "bytes32",
              "name": "id",
              "type": "bytes32"
            },
            {
              "internalType": "string",
              "name": "teamA",
              "type": "string"
            },
            {
              "internalType": "string",
              "name": "teamB",
              "type": "string"
            },
            {
              "internalType": "int8",
              "name": "result",
              "type": "int8"
            },
            {
              "internalType": "uint256",
              "name": "startTimestamp",
              "type": "uint256"
            },
            {
              "internalType": "address",
              "name": "bnbPool",
              "type": "address"
            },
            {
              "internalType": "address",
              "name": "goalPool",
              "type": "address"
            },
            {
              "internalType": "address",
              "name": "busdPool",
              "type": "address"
            },
            {
              "internalType": "enum IMetabetMask.EventOutcome",
              "name": "outcome",
              "type": "uint8"
            }
          ],
          "internalType": "struct IMetabetMask.SportEvent[]",
          "name": "",
          "type": "tuple[]"
        }
      ],
      "stateMutability": "view",
      "type": "function"
    },
    {
      "inputs": [],
      "name": "getEventsLength",
      "outputs": [
        {
          "internalType": "uint256",
          "name": "",
          "type": "uint256"
        }
      ],
      "stateMutability": "view",
      "type": "function"
    },
    {
      "inputs": [
        {
          "internalType": "uint256[]",
          "name": "indexes",
          "type": "uint256[]"
        }
      ],
      "name": "getIndexedEvents",
      "outputs": [
        {
          "components": [
            {
              "internalType": "bytes32",
              "name": "id",
              "type": "bytes32"
            },
            {
              "internalType": "string",
              "name": "teamA",
              "type": "string"
            },
            {
              "internalType": "string",
              "name": "teamB",
              "type": "string"
            },
            {
              "internalType": "int8",
              "name": "result",
              "type": "int8"
            },
            {
              "internalType": "uint256",
              "name": "startTimestamp",
              "type": "uint256"
            },
            {
              "internalType": "address",
              "name": "bnbPool",
              "type": "address"
            },
            {
              "internalType": "address",
              "name": "goalPool",
              "type": "address"
            },
            {
              "internalType": "address",
              "name": "busdPool",
              "type": "address"
            },
            {
              "internalType": "enum IMetabetMask.EventOutcome",
              "name": "outcome",
              "type": "uint8"
            }
          ],
          "internalType": "struct IMetabetMask.SportEvent[]",
          "name": "",
          "type": "tuple[]"
        }
      ],
      "stateMutability": "view",
      "type": "function"
    },
    {
      "inputs": [],
      "name": "getLiveEvents",
      "outputs": [
        {
          "components": [
            {
              "internalType": "bytes32",
              "name": "id",
              "type": "bytes32"
            },
            {
              "internalType": "string",
              "name": "teamA",
              "type": "string"
            },
            {
              "internalType": "string",
              "name": "teamB",
              "type": "string"
            },
            {
              "internalType": "int8",
              "name": "result",
              "type": "int8"
            },
            {
              "internalType": "uint256",
              "name": "startTimestamp",
              "type": "uint256"
            },
            {
              "internalType": "address",
              "name": "bnbPool",
              "type": "address"
            },
            {
              "internalType": "address",
              "name": "goalPool",
              "type": "address"
            },
            {
              "internalType": "address",
              "name": "busdPool",
              "type": "address"
            },
            {
              "internalType": "enum IMetabetMask.EventOutcome",
              "name": "outcome",
              "type": "uint8"
            }
          ],
          "internalType": "struct IMetabetMask.SportEvent[]",
          "name": "",
          "type": "tuple[]"
        }
      ],
      "stateMutability": "view",
      "type": "function"
    },
    {
      "inputs": [
        {
          "internalType": "int8",
          "name": "_team",
          "type": "int8"
        },
        {
          "internalType": "address",
          "name": "_token",
          "type": "address"
        },
        {
          "internalType": "bytes32",
          "name": "_eventId",
          "type": "bytes32"
        }
      ],
      "name": "getOdds",
      "outputs": [
        {
          "internalType": "uint256",
          "name": "",
          "type": "uint256"
        }
      ],
      "stateMutability": "view",
      "type": "function"
    },
    {
      "inputs": [
        {
          "internalType": "address",
          "name": "_user",
          "type": "address"
        },
        {
          "internalType": "address",
          "name": "_token",
          "type": "address"
        },
        {
          "internalType": "bytes32",
          "name": "_eventId",
          "type": "bytes32"
        }
      ],
      "name": "getPayout",
      "outputs": [
        {
          "internalType": "uint256",
          "name": "",
          "type": "uint256"
        }
      ],
      "stateMutability": "view",
      "type": "function"
    },
    {
      "inputs": [
        {
          "internalType": "address",
          "name": "_token",
          "type": "address"
        },
        {
          "internalType": "bytes32",
          "name": "_eventId",
          "type": "bytes32"
        }
      ],
      "name": "getPoolSize",
      "outputs": [
        {
          "internalType": "uint256",
          "name": "",
          "type": "uint256"
        }
      ],
      "stateMutability": "view",
      "type": "function"
    },
    {
      "inputs": [
        {
          "internalType": "address",
          "name": "_token",
          "type": "address"
        },
        {
          "internalType": "bytes32",
          "name": "_eventId",
          "type": "bytes32"
        }
      ],
      "name": "getPoolTotal",
      "outputs": [
        {
          "internalType": "uint256",
          "name": "",
          "type": "uint256"
        }
      ],
      "stateMutability": "view",
      "type": "function"
    },
    {
      "inputs": [
        {
          "internalType": "int8",
          "name": "_team",
          "type": "int8"
        },
        {
          "internalType": "address",
          "name": "_token",
          "type": "address"
        },
        {
          "internalType": "bytes32",
          "name": "_eventId",
          "type": "bytes32"
        }
      ],
      "name": "getPoolTotalTeam",
      "outputs": [
        {
          "internalType": "uint256",
          "name": "",
          "type": "uint256"
        }
      ],
      "stateMutability": "view",
      "type": "function"
    },
    {
      "inputs": [],
      "name": "getPredictableEvents",
      "outputs": [
        {
          "components": [
            {
              "internalType": "bytes32",
              "name": "id",
              "type": "bytes32"
            },
            {
              "internalType": "string",
              "name": "teamA",
              "type": "string"
            },
            {
              "internalType": "string",
              "name": "teamB",
              "type": "string"
            },
            {
              "internalType": "int8",
              "name": "result",
              "type": "int8"
            },
            {
              "internalType": "uint256",
              "name": "startTimestamp",
              "type": "uint256"
            },
            {
              "internalType": "address",
              "name": "bnbPool",
              "type": "address"
            },
            {
              "internalType": "address",
              "name": "goalPool",
              "type": "address"
            },
            {
              "internalType": "address",
              "name": "busdPool",
              "type": "address"
            },
            {
              "internalType": "enum IMetabetMask.EventOutcome",
              "name": "outcome",
              "type": "uint8"
            }
          ],
          "internalType": "struct IMetabetMask.SportEvent[]",
          "name": "",
          "type": "tuple[]"
        }
      ],
      "stateMutability": "view",
      "type": "function"
    },
    {
      "inputs": [],
      "name": "owner",
      "outputs": [
        {
          "internalType": "address",
          "name": "",
          "type": "address"
        }
      ],
      "stateMutability": "view",
      "type": "function"
    },
    {
      "inputs": [],
      "name": "renounceOwnership",
      "outputs": [],
      "stateMutability": "nonpayable",
      "type": "function"
    },
    {
      "inputs": [
        {
          "internalType": "address",
          "name": "_oracleAddress",
          "type": "address"
        }
      ],
      "name": "setOracleAddress",
      "outputs": [],
      "stateMutability": "nonpayable",
      "type": "function"
    },
    {
      "inputs": [],
      "name": "sportOracle",
      "outputs": [
        {
          "internalType": "contract IMetabetMask",
          "name": "",
          "type": "address"
        }
      ],
      "stateMutability": "view",
      "type": "function"
    },
    {
      "inputs": [
        {
          "internalType": "address",
          "name": "",
          "type": "address"
        }
      ],
      "name": "tokenFees",
      "outputs": [
        {
          "internalType": "uint256",
          "name": "",
          "type": "uint256"
        }
      ],
      "stateMutability": "view",
      "type": "function"
    },
    {
      "inputs": [
        {
          "internalType": "address",
          "name": "newOwner",
          "type": "address"
        }
      ],
      "name": "transferOwnership",
      "outputs": [],
      "stateMutability": "nonpayable",
      "type": "function"
    },
    {
      "inputs": [],
      "name": "treasury",
      "outputs": [
        {
          "internalType": "contract ITreasury",
          "name": "",
          "type": "address"
        }
      ],
      "stateMutability": "view",
      "type": "function"
    },
    {
      "inputs": [
        {
          "internalType": "uint256",
          "name": "_fee",
          "type": "uint256"
        },
        {
          "internalType": "address",
          "name": "_token",
          "type": "address"
        }
      ],
      "name": "updateTokenFee",
      "outputs": [],
      "stateMutability": "nonpayable",
      "type": "function"
    },
    {
      "inputs": [
        {
          "internalType": "address",
          "name": "_user",
          "type": "address"
        },
        {
          "internalType": "bytes32[]",
          "name": "_eventIds",
          "type": "bytes32[]"
        }
      ],
      "name": "userPredictStatus",
      "outputs": [
        {
          "internalType": "bool[]",
          "name": "",
          "type": "bool[]"
        }
      ],
      "stateMutability": "view",
      "type": "function"
    },
    {
      "inputs": [
        {
          "internalType": "address",
          "name": "",
          "type": "address"
        },
        {
          "internalType": "uint256",
          "name": "",
          "type": "uint256"
        }
      ],
      "name": "userToEvents",
      "outputs": [
        {
          "internalType": "bytes32",
          "name": "",
          "type": "bytes32"
        }
      ],
      "stateMutability": "view",
      "type": "function"
    },
    {
      "stateMutability": "payable",
      "type": "receive"
    }
  ],
  "bytecode": "0x60806040523480156200001157600080fd5b506040516200311038038062003110833981016040819052620000349162000124565b6200003f33620000d4565b6001808055600480546001600160a01b03199081166001600160a01b03978816179091556005805482169587169590951790945560028054851693861693841790556003805490941691909416908117909255600c6020527f13649b2456f1b42fef0f0040b3aaeabcd21a76a0f3f5defd4f583839455116e883905560009182526040808320849055908252902055620001a4565b600080546001600160a01b038381166001600160a01b0319831681178455604051919092169283917f8be0079c531659141344cd1fd0a4f28419497f9722a3daafe3b4186f6b6457e09190a35050565b600080600080608085870312156200013a578384fd5b845162000147816200018b565b60208601519094506200015a816200018b565b60408601519093506200016d816200018b565b606086015190925062000180816200018b565b939692955090935050565b6001600160a01b0381168114620001a157600080fd5b50565b612f5c80620001b46000396000f3fe6080604052600436106101dc5760003560e01c8063715018a611610102578063a1bed0be11610095578063d7c7220111610064578063d7c7220114610678578063dc75509114610698578063f2fde38b146106b8578063fbff64d0146106d857600080fd5b8063a1bed0be146105c3578063b7697360146105e3578063bb6515e414610621578063c784685c1461063657600080fd5b806394fd2e5b116100d157806394fd2e5b1461052b578063954ed8ea1461054b578063965a2786146105835780639eab46a8146105a357600080fd5b8063715018a6146104c357806388b4f2d3146104d85780638d6d032f146104f85780638da5cb5b1461050d57600080fd5b806347fc216e1161017a5780635cbe247d116101495780635cbe247d1461043857806361d027b3146104705780636726f39a146104905780636d9a2acb146104b057600080fd5b806347fc216e146103c1578063484f4ea9146103d65780634b97ca5b146103f65780634c69c00f1461041657600080fd5b806333290e4f116101b657806333290e4f146103025780633760fe8f1461032f57806339e16d641461035c5780633f8bafd31461038957600080fd5b806304684b11146101e85780631d579ebc1461021b5780632be1461e146102d557600080fd5b366101e357005b600080fd5b3480156101f457600080fd5b506102086102033660046126c3565b61071a565b6040519081526020015b60405180910390f35b34801561022757600080fd5b506102906102363660046129ad565b60066020908152600092835260408084209091529082528120805460018201546002830154600384015460048501546005909501546001600160a01b039485169693909416949193909281900b9060ff6101009091041687565b604080516001600160a01b039889168152979096166020880152948601939093526060850191909152608084015260000b60a0830152151560c082015260e001610212565b3480156102e157600080fd5b506102f56102f0366004612995565b61074b565b6040516102129190612bd0565b34801561030e57600080fd5b5061032261031d3660046128e3565b610904565b6040516102129190612c62565b34801561033b57600080fd5b5061034f61034a366004612676565b610990565b6040516102129190612b52565b34801561036857600080fd5b5061020861037736600461261a565b600c6020526000908152604090205481565b34801561039557600080fd5b506103a96103a4366004612a5b565b610dbc565b6040516001600160a01b039091168152602001610212565b3480156103cd57600080fd5b50610208610df4565b3480156103e257600080fd5b506003546103a9906001600160a01b031681565b34801561040257600080fd5b50610208610411366004612aa9565b610e81565b34801561042257600080fd5b5061043661043136600461261a565b610eb8565b005b34801561044457600080fd5b506102086104533660046129ad565b600760209081526000928352604080842090915290825290205481565b34801561047c57600080fd5b506005546103a9906001600160a01b031681565b34801561049c57600080fd5b506102086104ab366004612636565b610f7f565b6104366104be366004612a7c565b611044565b3480156104cf57600080fd5b506104366114d9565b3480156104e457600080fd5b506104366104f3366004612720565b6114ed565b34801561050457600080fd5b50610322611b8a565b34801561051957600080fd5b506000546001600160a01b03166103a9565b34801561053757600080fd5b506103226105463660046126ee565b611c16565b34801561055757600080fd5b506102086105663660046129ad565b600960209081526000928352604080842090915290825290205481565b34801561058f57600080fd5b506004546103a9906001600160a01b031681565b3480156105af57600080fd5b506104366105be3660046129ad565b611c48565b3480156105cf57600080fd5b506002546103a9906001600160a01b031681565b3480156105ef57600080fd5b506102086105fe3660046129d1565b600860209081526000938452604080852082529284528284209052825290205481565b34801561062d57600080fd5b50610322611cea565b34801561064257600080fd5b506102086106513660046126c3565b60009081526009602090815260408083206001600160a01b03949094168352929052205490565b34801561068457600080fd5b50610436610693366004612a12565b611d3a565b3480156106a457600080fd5b506102086106b3366004612aa9565b61231b565b3480156106c457600080fd5b506104366106d336600461261a565b612377565b3480156106e457600080fd5b506102086106f33660046126c3565b60009081526007602090815260408083206001600160a01b03949094168352929052205490565b600a602052816000526040600020818154811061073657600080fd5b90600052602060002001600091509150505481565b6000818152600b6020526040812054606091816001600160401b0381111561078357634e487b7160e01b600052604160045260246000fd5b6040519080825280602002602001820160405280156107ea57816020015b6040805160e08101825260008082526020808301829052928201819052606082018190526080820181905260a0820181905260c082015282526000199092019101816107a15790505b50905060005b828110156108fc576000858152600660209081526040808320600b909252822080549192918490811061083357634e487b7160e01b600052603260045260246000fd5b60009182526020808320909101546001600160a01b0390811684528382019490945260409283018220835160e081018552815486168152600182015490951691850191909152600281015492840192909252600382015460608401526004820154608084015260059091015480820b820b90910b60a083015260ff61010090910416151560c082015282518390839081106108de57634e487b7160e01b600052603260045260246000fd5b602002602001018190525080806108f490612ebb565b9150506107f0565b509392505050565b600480546040516333290e4f60e01b81526060926001600160a01b03909216916333290e4f9161093691869101612b98565b60006040518083038186803b15801561094e57600080fd5b505afa158015610962573d6000803e3d6000fd5b505050506040513d6000823e601f3d908101601f1916820160405261098a919081019061276f565b92915050565b6060600082516001600160401b038111156109bb57634e487b7160e01b600052604160045260246000fd5b6040519080825280602002602001820160405280156109e4578160200160208202803683370190505b50600480546040516394fd2e5b60e01b81529293506000926001600160a01b03909116916394fd2e5b91610a1a91889101612b98565b60006040518083038186803b158015610a3257600080fd5b505afa158015610a46573d6000803e3d6000fd5b505050506040513d6000823e601f3d908101601f19168201604052610a6e919081019061276f565b905060005b8451811015610db2576001828281518110610a9e57634e487b7160e01b600052603260045260246000fd5b602002602001015161010001516001811115610aca57634e487b7160e01b600052602160045260246000fd5b14610b345760405162461bcd60e51b815260206004820152602f60248201527f4d6574616265744d61736b506f6f6c3a204576656e7420686173206e6f74206260448201526e19595b88191958da591959081e595d608a1b60648201526084015b60405180910390fd5b60045485516001600160a01b039091169063118e58bd90879084908110610b6b57634e487b7160e01b600052603260045260246000fd5b60200260200101516040518263ffffffff1660e01b8152600401610b9191815260200190565b60206040518083038186803b158015610ba957600080fd5b505afa158015610bbd573d6000803e3d6000fd5b505050506040513d601f19601f82011682018060405250810190610be19190612975565b610c3b5760405162461bcd60e51b815260206004820152602560248201527f4d6574616265744d61736b506f6f6c3a204576656e7420646f6573206e6f7420604482015264195e1a5cdd60da1b6064820152608401610b2b565b600060066000878481518110610c6157634e487b7160e01b600052603260045260246000fd5b602090810291909101810151825281810192909252604090810160009081206001600160a01b038b81168352908452828220835160e081018552815483168152600182015490921694820194909452600284015492810192909252600383015460608301526004830154608083015260059092015480830b830b90920b60a082015261010090910460ff16151560c08201528351909150839083908110610d1857634e487b7160e01b600052603260045260246000fd5b60200260200101516060015160000b8160a0015160000b1415610d6c576001848381518110610d5757634e487b7160e01b600052603260045260246000fd5b91151560209283029190910190910152610d9f565b6000848381518110610d8e57634e487b7160e01b600052603260045260246000fd5b911515602092830291909101909101525b50610dab816001612e21565b9050610a73565b5090949350505050565b600b6020528160005260406000208181548110610dd857600080fd5b6000918252602090912001546001600160a01b03169150829050565b6000600460009054906101000a90046001600160a01b03166001600160a01b03166347fc216e6040518163ffffffff1660e01b815260040160206040518083038186803b158015610e4457600080fd5b505afa158015610e58573d6000803e3d6000fd5b505050506040513d601f19601f82011682018060405250810190610e7c9190612ac8565b905090565b60008181526008602090815260408083206001600160a01b0386168452825280832086840b840b84529091529020545b9392505050565b610ec06123f0565b806001600160a01b038116610f295760405162461bcd60e51b815260206004820152602960248201527f4d6574616265744d61736b506f6f6c3a20416464726573732030206973206e6f6044820152681d08185b1b1bddd95960ba1b6064820152608401610b2b565b600480546001600160a01b0319166001600160a01b0384169081179091556040519081527fdd82bdfc28fcc826c53263dc2a2b6083e27e92699ebfee617227e08e21c202f0906020015b60405180910390a15050565b60008181526006602090815260408083206001600160a01b038781168552908352818420825160e081018452815483168152600182015490921693820193909352600283015491810191909152600382015460608201526004820154608082015260059091015480830b830b830b60a0830181905261010090910460ff16151560c0830152829061101190868661231b565b905083826040015114156110385780826060015161102f9190612e59565b92505050610eb1565b50600095945050505050565b61104c61244a565b8134101561105957600080fd5b6000808052600c6020527f13649b2456f1b42fef0f0040b3aaeabcd21a76a0f3f5defd4f583839455116e85461109d906064906110979086906124a4565b906124b0565b905060006110ab84836124bc565b604080516001808252818301909252919250600091906020808301908036833701905050905085816000815181106110f357634e487b7160e01b600052603260045260246000fd5b6020908102919091010152600480546040516394fd2e5b60e01b81526000926001600160a01b03909216916394fd2e5b9161113091869101612b98565b60006040518083038186803b15801561114857600080fd5b505afa15801561115c573d6000803e3d6000fd5b505050506040513d6000823e601f3d908101601f19168201604052611184919081019061276f565b6000815181106111a457634e487b7160e01b600052603260045260246000fd5b6020026020010151905042816080015110156111d25760405162461bcd60e51b8152600401610b2b90612d59565b336000818152600a60209081526040808320805460018181018355918552838520018c90558b8452600b83528184208054918201815584528284200180546001600160a01b0319169094179093558982526007815282822082805290529081208054889290611242908490612e21565b90915550506000878152600860209081526040808320838052825280832088840b840b84529091528120805488929061127c908490612e21565b9091555050600087815260096020908152604080832083805290915281208054600192906112ab908490612e21565b9250508190555060006040518060e00160405280336001600160a01b0316815260200160006001600160a01b031681526020018981526020018581526020014281526020018760000b815260200160001515815250905080600660008a81526020019081526020016000206000336001600160a01b03166001600160a01b0316815260200190815260200160002060008201518160000160006101000a8154816001600160a01b0302191690836001600160a01b0316021790555060208201518160010160006101000a8154816001600160a01b0302191690836001600160a01b0316021790555060408201518160020155606082015181600301556080820151816004015560a08201518160050160006101000a81548160ff021916908360000b60ff16021790555060c08201518160050160016101000a81548160ff021916908315150217905550905050600560009054906101000a90046001600160a01b03166001600160a01b03166108fc869081150290604051600060405180830381858888f19350505050158015611446573d6000803e3d6000fd5b508160a001516001600160a01b03166108fc859081150290604051600060405180830381858888f19350505050158015611484573d6000803e3d6000fd5b5060408051600088900b81526020810186905233918a917f8b25b88f52cfa9737af5a016457e58c0c6232999d2cd00ac17a9d29e89b30ed5910160405180910390a350505050506114d460018055565b505050565b6114e16123f0565b6114eb60006124c8565b565b6114f561244a565b600082516001600160401b0381111561151e57634e487b7160e01b600052604160045260246000fd5b604051908082528060200260200182016040528015611547578160200160208202803683370190505b509050600083516001600160401b0381111561157357634e487b7160e01b600052604160045260246000fd5b60405190808252806020026020018201604052801561159c578160200160208202803683370190505b50600480546040516394fd2e5b60e01b81529293506000926001600160a01b03909116916394fd2e5b916115d291899101612b98565b60006040518083038186803b1580156115ea57600080fd5b505afa1580156115fe573d6000803e3d6000fd5b505050506040513d6000823e601f3d908101601f19168201604052611626919081019061276f565b90506116323386610990565b915060005b8551811015611b795785818151811061166057634e487b7160e01b600052603260045260246000fd5b602002602001015184828151811061168857634e487b7160e01b600052603260045260246000fd5b6020026020010181815250508281815181106116b457634e487b7160e01b600052603260045260246000fd5b602002602001015161171e5760405162461bcd60e51b815260206004820152602d60248201527f4d6574616265744d61736b506f6f6c3a204f6e6c792077696e6e65722063616e60448201526c0818db185a5b481c995dd85c99609a1b6064820152608401610b2b565b6006600087838151811061174257634e487b7160e01b600052603260045260246000fd5b60209081029190910181015182528181019290925260409081016000908120338252909252902060050154610100900460ff16156117db5760405162461bcd60e51b815260206004820152603060248201527f4d6574616265744d61736b506f6f6c3a20557365722068617320616c7265616460448201526f1e4818db185a5b5959081c995dd85c9960821b6064820152608401610b2b565b60006006600088848151811061180157634e487b7160e01b600052603260045260246000fd5b6020908102919091018101518252818101929092526040908101600090812033808352935290812060058101805461ff001916610100179055895190935090916118749189908b908790811061186757634e487b7160e01b600052603260045260246000fd5b6020026020010151610f7f565b90506001600160a01b0387166119ad578383815181106118a457634e487b7160e01b600052603260045260246000fd5b602002602001015160a001516001600160a01b0316632e1a7d4d826040518263ffffffff1660e01b81526004016118dd91815260200190565b600060405180830381600087803b1580156118f757600080fd5b505af115801561190b573d6000803e3d6000fd5b50506040516000925033915083908381818185875af1925050503d8060008114611951576040519150601f19603f3d011682016040523d82523d6000602084013e611956565b606091505b50509050806119a75760405162461bcd60e51b815260206004820152601d60248201527f636c61696d206f6620626e622077617320756e7375636365737366756c0000006044820152606401610b2b565b50611af9565b6002546001600160a01b0388811691161415611a55578383815181106119e357634e487b7160e01b600052603260045260246000fd5b602002602001015160c001516001600160a01b03166301e336678833846040518463ffffffff1660e01b8152600401611a1e93929190612b2e565b600060405180830381600087803b158015611a3857600080fd5b505af1158015611a4c573d6000803e3d6000fd5b50505050611af9565b6003546001600160a01b0388811691161415611af957838381518110611a8b57634e487b7160e01b600052603260045260246000fd5b602002602001015160e001516001600160a01b03166301e336678833846040518463ffffffff1660e01b8152600401611ac693929190612b2e565b600060405180830381600087803b158015611ae057600080fd5b505af1158015611af4573d6000803e3d6000fd5b505050505b878381518110611b1957634e487b7160e01b600052603260045260246000fd5b6020026020010151336001600160a01b03167f33e1e4350f7b57099d5489c172fc55e9e32d4d3906a6e36710fae5ed9f5eef0f83604051611b5c91815260200190565b60405180910390a350508080611b7190612ebb565b915050611637565b50505050611b8660018055565b5050565b6060600460009054906101000a90046001600160a01b03166001600160a01b031663b4184e706040518163ffffffff1660e01b815260040160006040518083038186803b158015611bda57600080fd5b505afa158015611bee573d6000803e3d6000fd5b505050506040513d6000823e601f3d908101601f19168201604052610e7c919081019061276f565b600480546040516394fd2e5b60e01b81526060926001600160a01b03909216916394fd2e5b9161093691869101612b98565b611c506123f0565b81611c9d5760405162461bcd60e51b815260206004820181905260248201527f4d6574616265744d61736b506f6f6c3a206665652063616e6e6f7420626520306044820152606401610b2b565b6001600160a01b0381166000908152600c602052604090819020839055517ff61e39fefd2c73a068ca37aab6526a88f6561b409bb2898b189f15e1adae6f0790610f739084815260200190565b6060600460009054906101000a90046001600160a01b03166001600160a01b031663bb6515e46040518163ffffffff1660e01b815260040160006040518083038186803b158015611bda57600080fd5b611d4261244a565b604080516001808252818301909252600091602080830190803683375050506001600160a01b0385166000908152600c602052604081205491925090611d90906064906110979087906124a4565b90506000611d9e85836124bc565b90508683600081518110611dc257634e487b7160e01b600052603260045260246000fd5b6020908102919091010152600480546040516394fd2e5b60e01b81526000926001600160a01b03909216916394fd2e5b91611dff91889101612b98565b60006040518083038186803b158015611e1757600080fd5b505afa158015611e2b573d6000803e3d6000fd5b505050506040513d6000823e601f3d908101601f19168201604052611e53919081019061276f565b600081518110611e7357634e487b7160e01b600052603260045260246000fd5b602002602001015190504281608001511015611ea15760405162461bcd60e51b8152600401610b2b90612d59565b336000818152600a60209081526040808320805460018181018355918552838520018d90558c8452600b83528184208054918201815584528284200180546001600160a01b0319169094179093558a8252600781528282206001600160a01b038b16835290529081208054889290611f1a908490612e21565b909155505060008881526008602090815260408083206001600160a01b038b168452825280832088840b840b845290915281208054889290611f5d908490612e21565b909155505060008881526009602090815260408083206001600160a01b038b1684529091528120805460019290611f95908490612e21565b9250508190555060006040518060e00160405280336001600160a01b03168152602001896001600160a01b031681526020018a81526020018481526020014281526020018760000b815260200160001515815250905080600660008b81526020019081526020016000206000336001600160a01b03166001600160a01b0316815260200190815260200160002060008201518160000160006101000a8154816001600160a01b0302191690836001600160a01b0316021790555060208201518160010160006101000a8154816001600160a01b0302191690836001600160a01b0316021790555060408201518160020155606082015181600301556080820151816004015560a08201518160050160006101000a81548160ff021916908360000b60ff16021790555060c08201518160050160016101000a81548160ff021916908315150217905550905050600260009054906101000a90046001600160a01b03166001600160a01b0316886001600160a01b031614156121ab5760c08201516040516323b872dd60e01b81526000916001600160a01b038b16916323b872dd91612147913391908990600401612b2e565b602060405180830381600087803b15801561216157600080fd5b505af1158015612175573d6000803e3d6000fd5b505050506040513d601f19601f820116820180604052508101906121999190612975565b9050806121a557600080fd5b50612242565b60e08201516040516323b872dd60e01b81526000916001600160a01b038b16916323b872dd916121e2913391908990600401612b2e565b602060405180830381600087803b1580156121fc57600080fd5b505af1158015612210573d6000803e3d6000fd5b505050506040513d601f19601f820116820180604052508101906122349190612975565b90508061224057600080fd5b505b6003546001600160a01b03898116911614156122c65760e08201516005546040516301e3366760e01b81526001600160a01b03928316926301e3366792612293928d92909116908990600401612b2e565b600060405180830381600087803b1580156122ad57600080fd5b505af11580156122c1573d6000803e3d6000fd5b505050505b60408051600088900b81526020810185905233918b917f8b25b88f52cfa9737af5a016457e58c0c6232999d2cd00ac17a9d29e89b30ed5910160405180910390a3505050505061231560018055565b50505050565b600080612329858585610e81565b60008481526007602090815260408083206001600160a01b0389168452909152902054909150811580159061235d57508015155b1561236c5761102f8282612e39565b600092505050610eb1565b61237f6123f0565b6001600160a01b0381166123e45760405162461bcd60e51b815260206004820152602660248201527f4f776e61626c653a206e6577206f776e657220697320746865207a65726f206160448201526564647265737360d01b6064820152608401610b2b565b6123ed816124c8565b50565b6000546001600160a01b031633146114eb5760405162461bcd60e51b815260206004820181905260248201527f4f776e61626c653a2063616c6c6572206973206e6f7420746865206f776e65726044820152606401610b2b565b6002600154141561249d5760405162461bcd60e51b815260206004820152601f60248201527f5265656e7472616e637947756172643a207265656e7472616e742063616c6c006044820152606401610b2b565b6002600155565b6000610eb18284612e59565b6000610eb18284612e39565b6000610eb18284612e78565b600080546001600160a01b038381166001600160a01b0319831681178455604051919092169283917f8be0079c531659141344cd1fd0a4f28419497f9722a3daafe3b4186f6b6457e09190a35050565b805161252381612f02565b919050565b600082601f830112612538578081fd5b8135602061254d61254883612dfe565b612dce565b80838252828201915082860187848660051b890101111561256c578586fd5b855b8581101561258a5781358452928401929084019060010161256e565b5090979650505050505050565b80516002811061252357600080fd5b805161252381612f17565b600082601f8301126125c1578081fd5b81516001600160401b038111156125da576125da612eec565b6125ed601f8201601f1916602001612dce565b818152846020838601011115612601578283fd5b612612826020830160208701612e8f565b949350505050565b60006020828403121561262b578081fd5b8135610eb181612f02565b60008060006060848603121561264a578182fd5b833561265581612f02565b9250602084013561266581612f02565b929592945050506040919091013590565b60008060408385031215612688578182fd5b823561269381612f02565b915060208301356001600160401b038111156126ad578182fd5b6126b985828601612528565b9150509250929050565b600080604083850312156126d5578182fd5b82356126e081612f02565b946020939093013593505050565b6000602082840312156126ff578081fd5b81356001600160401b03811115612714578182fd5b61261284828501612528565b60008060408385031215612732578182fd5b82356001600160401b03811115612747578283fd5b61275385828601612528565b925050602083013561276481612f02565b809150509250929050565b60006020808385031215612781578182fd5b82516001600160401b0380821115612797578384fd5b818501915085601f8301126127aa578384fd5b81516127b861254882612dfe565b80828252858201915085850189878560051b88010111156127d7578788fd5b875b848110156128d4578151868111156127ef57898afd5b8701610120818d03601f1901811315612806578a8bfd5b61280e612da5565b8a8301518152604083015189811115612825578c8dfd5b6128338f8d838701016125b1565b8c83015250606083015189811115612849578c8dfd5b6128578f8d838701016125b1565b604083015250608061286a8185016125a6565b606083015260a0808501518284015260c09150612888828601612518565b9083015260e0612899858201612518565b8284015261010091506128ad828601612518565b908301526128bc848401612597565b908201528652505092870192908701906001016127d9565b50909998505050505050505050565b600060208083850312156128f5578182fd5b82356001600160401b0381111561290a578283fd5b8301601f8101851361291a578283fd5b803561292861254882612dfe565b80828252848201915084840188868560051b8701011115612947578687fd5b8694505b8385101561296957803583526001949094019391850191850161294b565b50979650505050505050565b600060208284031215612986578081fd5b81518015158114610eb1578182fd5b6000602082840312156129a6578081fd5b5035919050565b600080604083850312156129bf578182fd5b82359150602083013561276481612f02565b6000806000606084860312156129e5578081fd5b8335925060208401356129f781612f02565b91506040840135612a0781612f17565b809150509250925092565b60008060008060808587031215612a27578182fd5b843593506020850135612a3981612f02565b9250604085013591506060850135612a5081612f17565b939692955090935050565b60008060408385031215612a6d578182fd5b50508035926020909101359150565b600080600060608486031215612a90578081fd5b83359250602084013591506040840135612a0781612f17565b600080600060608486031215612abd578081fd5b833561265581612f17565b600060208284031215612ad9578081fd5b5051919050565b60028110612afe57634e487b7160e01b600052602160045260246000fd5b9052565b60008151808452612b1a816020860160208601612e8f565b601f01601f19169290920160200192915050565b6001600160a01b039384168152919092166020820152604081019190915260600190565b6020808252825182820181905260009190848201906040850190845b81811015612b8c578351151583529284019291840191600101612b6e565b50909695505050505050565b6020808252825182820181905260009190848201906040850190845b81811015612b8c57835183529284019291840191600101612bb4565b602080825282518282018190526000919060409081850190868401855b82811015612c5557815180516001600160a01b0390811686528782015116878601528581015186860152606080820151908601526080808201519086015260a080820151890b9086015260c09081015115159085015260e09093019290850190600101612bed565b5091979650505050505050565b60006020808301818452808551808352604092508286019150828160051b870101848801865b83811015612d4b57603f1989840301855281516101208151855288820151818a870152612cb782870182612b02565b9150508782015185820389870152612ccf8282612b02565b915050606080830151612ce68288018260000b9052565b50506080828101519086015260a0808301516001600160a01b039081169187019190915260c08084015182169087015260e080840151909116908601526101009182015191612d3781870184612ae0565b509588019593505090860190600101612c88565b509098975050505050505050565b6020808252602c908201527f4d6574616265744d61736b506f6f6c3a204576656e742068617320737461727460408201526b32b21037b91032b73232b21760a11b606082015260800190565b60405161012081016001600160401b0381118282101715612dc857612dc8612eec565b60405290565b604051601f8201601f191681016001600160401b0381118282101715612df657612df6612eec565b604052919050565b60006001600160401b03821115612e1757612e17612eec565b5060051b60200190565b60008219821115612e3457612e34612ed6565b500190565b600082612e5457634e487b7160e01b81526012600452602481fd5b500490565b6000816000190483118215151615612e7357612e73612ed6565b500290565b600082821015612e8a57612e8a612ed6565b500390565b60005b83811015612eaa578181015183820152602001612e92565b838111156123155750506000910152565b6000600019821415612ecf57612ecf612ed6565b5060010190565b634e487b7160e01b600052601160045260246000fd5b634e487b7160e01b600052604160045260246000fd5b6001600160a01b03811681146123ed57600080fd5b8060000b81146123ed57600080fdfea26469706673582212203a7787f223905321411c8815ea6d8464f2febe838a7730e57bfc3d11ec760d3f64736f6c63430008040033",
  "linkReferences": {},
  "deployedLinkReferences": {}
}